:0E0000000C94F7000C9400000C9400000C947B
:10000E0000000C9400000C9400000C9400000C9462
:10001E0000000C9400000C9400000C9400000C9452
:10002E0000000C9400000C9400000C9400000C9442
:10003E0000000C9400000C9400000C9400000C9432
:10004E0000000C9400001027E80364000A00010071
:10005E00001000011000010000000000000003006D
:10006E002564005365742041646D696E2049443ADD
:10007E00005365742041646D696E20706173733A2C
:10008E00007365742073706565643A004E6578740C
:10009E003E0025640D0A0073656E6400202020204A
:1000AE002000637265617465206E657720757365D7
:1000BE00723F004564697420757365723F007573F5
:1000CE00652075702F646F776E00456E74657220B3
:1000DE00557365722049443A005365742055736513
:1000EE007220706173733A00536574205573657294
:1000FE002049443A00757365723A25642050617345
:10010E00733A25642020202073617665640065644F
:10011E0069742049443F006564697420706173738B
:10012E00776F72643F0064656C65746520757365E6
:10013E00723F00757365723A256400706173733A8D
:10014E00256400757365722069643A2564006465E0
:10015E006C6574653F000A000700080009000B007B
:10016E000400050006000C000100020003000D0053
:10017E000E0000000F0080C00700060066000E0093
:10018E006002710010006E027F000C007E02CC0037
:10019E000F008A02D8000F009902E7000D00A80296
:1001AE00F6000F00B502E7000900C4021C010F00A3
:1001BE00CD0225010D00DC0234010600E902160114
:1001CE000600EF0216010800F5025C010B00FD02AD
:1001DE008F001F002203640102004203840100000D
:1001EE00F894EE27ECBBF1E0FBBFEBBFE5BF8DE073
:1001FE00A2E0BB27ED938A95E9F780E098E0A0E6B0
:10020E00ED930197E9F7E6E8F1E085919591009776
:10021E0061F0A591B59105901590BF01F001059083
:10022E000D920197E1F7FB01F0CFEFE5EDBFE8E0AE
:10023E00EEBFC0E6D2E00C943F010E94D506B3D2C9
:10024E00E030E9F7C3D22F0145BA0E94DB0618F45D
:10025E000E94E006F4CF0E94020719F40E940707DD
:10026E0008950E940C0719F4E0E0F0E00895089557
:10027E00EFEFE4BBE0E0EBB9E8E1EAB9E6E8E0BDB8
:10028E00E0E0E0BDE3E3E9B9A0E10E94C204E0E0F2
:10029E000E94110783D20E941507E13010F50E94CB
:1002AE001A07A0E6B2E00E941F07D9F00E942E079F
:1002BE00A1E0B0E00E943307AEE6B2E00E941F0755
:1002CE0031F00E942E07A3E0B0E00E946008A0E08B
:1002DE00B0E0E1E00E9468080E947204E1E0F0E004
:1002EE003F01E1E0F0E0E615F70509F077C0E5B370
:1002FE00EF7CE5BBAC9A0E947204AFE8B0E00E94BE
:10030E00B0040E9437070E94D5064DD2E030E9F7BF
:10031E005DD22F010E94DB0618F40E94E006F5CF95
:10032E000E94020741F40E9442070E945A07EBE026
:10033E000E941107EACF0E945F07E9F20E940C07A4
:10034E0019F4662477244AC00E94640709F046C057
:10035E000E947204A0EBB0E00E94B004E0E0EA93C9
:10036E00AAE00E946104AAE9B0E00E94B0041BD288
:10037E00E030E9F70E94690721F4E2E0F0E03F0186
:10038E002DC00E940C0719F46624772427C00E9402
:10039E00640721F50E947204A1ECB0E00E94B00443
:1003AE0002D2E030E9F70E94690759F40E946D0706
:1003BE00AEE7B2E00E94A004A0EDB7E00E941E08D6
:1003CE000DC00E940C0719F46624772407C00E9402
:1003DE00640719F00E945F0709F48DCF062C0728D9
:1003EE0009F04BC00E941A07AAE8B2E00E941F074C
:1003FE0009F443C00E947204A9E9B2E00E94720798
:10040E001CDFE0932003F09321033097A1F18824A1
:10041E009924E8ECF0E08E169F063CF5F4010E945C
:10042E0038080F010E947907A0911E03B0911F0397
:10043E00EA17FB0759F4D00113960E945008A091B9
:10044E002003B0912103EA17FB0709F00AC0082C1C
:10045E00092819F4E1E0F0E002C0EAE0F0E03F0123
:10046E0004C0F40131964F01D4CFE8ECF0E0E8156A
:10047E00F90509F4AD9A0E947E07E2E0F0E0E61578
:10048E00F705C9F50E941A07A8EAB2E00E941F07F5
:10049E0091F10E941507F0E00E948207A5EBB2E0F1
:1004AE000E941F0739F00E941507F0E00E9488078E
:1004BE000E9460080E948D07E3E0F1E0FA93EA9350
:1004CE000E941507F0E00E9494070E9497070E9471
:1004DE001507F0E00E949C0788E00E946F062C969C
:1004EE000E94A3070E941507EF5FA0E0B0E00E94F4
:1004FE00680866247724E3E0F0E0E615F70509F0D6
:10050E009CC051D1E030E9F761D12F010E94640700
:10051E0009F04AC00E947204A4ECB2E00E94A0044A
:10052E0042D1E030E9F70E94690719F4E5E0F0E006
:10053E003F010E94640791F50E947204ADECB2E097
:10054E000E94A00430D1E030E9F70E94690719F447
:10055E00E6E0F0E03F010E946407C9F40E947204D5
:10056E00ACEDB2E00E94A0041ED1E030E9F70E948B
:10057E00690719F4E7E0F0E03F010E94640751F2C9
:10058E000E940C0719F4E1E0F0E03F0106C00E9462
:10059E000C0719F4E1E0F0E03F0106C00E940C07E1
:1005AE0019F4E1E0F0E03F01EBE0F0E0E415F505D1
:1005BE0099F40E948D070E94A8070E9497070E9437
:1005CE00AE070E94B3070E94B6070E94AE070E94B4
:1005DE00A307F50131965F01ECE0F0E0E415F505B7
:1005EE00A9F40E948D070E94A8070E9497070E94F7
:1005FE00AE070E94B3070E94B6070E94AE07A8E09E
:10060E00B3E00E94A004F50131975F010E940C0730
:10061E0019F4E1E0F0E03F010024A014B00424F44A
:10062E000E941507AE2EBB240E941507D501F0E0DF
:10063E00EA17FB0714F4AA24BB24E5E0F0E0E61564
:10064E00F705F1F40E948D07E1E4F1E00E94C00786
:10065E000E9494070E9497070E94AE07A8E0B3E09D
:10066E000E941F0769F0F50131970E948207A9EEDB
:10067E00B2E00E94A0040E947E07E3E0F0E03F019A
:10068E00E6E0F0E0E615F705F1F40E948D07E9E4E7
:10069E00F1E00E94C0070E949C070E94AE07A8E0EE
:1006AE00B3E00E941F0779F0F50131970E94880789
:1006BE000E943307AFEEB2E00E94A0040E947E07B4
:1006CE00E3E0F0E03F01E7E0F0E0E615F70599F52D
:1006DE000E948D07E1E5F1E00E94C0070E94940799
:1006EE000E9497070E94AE070E94B307A5EFB2E0E3
:1006FE000E94A00458D0E030E9F70E946907B1F4D7
:10070E00F50131970E9438083196DF01E0E0F0E004
:10071E000E946008F50131970E9438083396DF0178
:10072E00E0E0F0E00E9460080E946D070E940C0756
:10073E0011F40E946D07EAE0F0E0E615F70561F5A9
:10074E00E5B3EF7CE5BBAC9A0E947204ADEFB2E06C
:10075E000E94A0040E9437070E94D50624D0E030E4
:10076E00E9F734D02F010E94DB0618F40E94E00650
:10077E00F5CF0E94020741F40E9442070E945A07D9
:10078E00EBE00E941107EACF0E945F07E9F20E9498
:10079E000C0711F4662477247ECDFFCFEFE0EABB81
:1007AE00EFEFEBBB08950E94C50761F00DC00E94EC
:1007BE00C50751F0A4E1B0E00E941E08E9B3E07F46
:1007CE00E03F11F0E1E00895E0E008950E947B081B
:1007DE00EEDFE03009F447C020E030E000E010E04A
:1007EE000430E0E01E07D0F5E02FA1E00E943008B3
:1007FE00E095EBBBAC2DBB270E941E08CC990AC01E
:10080E000E94CF07A2E2B3E0EE0FFF1FAE0FBF1F95
:10081E002D913C91CD9909C00E94CF07DF01AA0FFF
:10082E00BB1FAC5DBC4F2D913C91CE9909C00E946F
:10083E00CF07DF01AA0FBB1FAA5DBC4F2D913C91C4
:10084E00CF9909C00E94CF07DF01AA0FBB1FA85D79
:10085E00BC4F2D913C910F5F1F4FC2CFA4DFE030F4
:10086E00E9F3F90102C0EFEFF0E00E94820824964E
:10087E000895AA93E8B3EF70AE2FE881E07FEA2BDC
:10088E00E8BB8DE08A95F1F7C29A8DE08A95F1F773
:10089E00C2988DE08A95F1F70C94F504AA93A8817D
:1008AE00E8DFE881E295E883A881E3DF85E88A95B1
:1008BE00F1F794C0AA93E881F0E0EE5BFC4FE08183
:1008CE00A981AE0FEBDFE981E0934603E881E09367
:1008DE00470322960895A2E00E94D507ACE0DEDF22
:1008EE00A1E00E94D507E0E0E0934703E0934603C2
:1008FE000895AA93A881AA3031F0E0914803A091FF
:10090E004603AE1760F0E0E0EA93A0914703AF5FB5
:10091E00A0934703CFDFA881AA3009F45FC0E0910E
:10092E004603EF5FE0934603C09AA881B7DFC098F5
:10093E0055C0BA93AA931A93A981BA81ED91A9834E
:10094E00BA831E2FE03019F0A12FD3DFF5CF188117
:10095E004FC0BA93AA931A93E981FA813196E9832B
:10096E00FA833197E4911E2FE03019F0A12FC1DFE9
:10097E00F3CF18813DC0AA93E7B3E06FE7BBBA9AF5
:10098E00B89AB99AC298C098C198E881E093480382
:10099E00E058E0934403E881E054E0934503A4E17A
:1009AE00B0E00E941E080E94DB070E94DB070E9437
:1009BE00DB07A0E25EDF88EC90E00197F1F7A8E29A
:1009CE006DDFA4E06BDFA5E869DFA6E067DF83DFFC
:1009DE0005C0AA935D9BFECFE881ECB921960895E0
:1009EE00BA93AA93AA81F5DFA881B9810E94E30781
:1009FE0023960895BA93AA931A930A93AA81BB8158
:100A0E0012960E944308309729F1AA81BB81149651
:100A1E000E9443088F01309761F00230E0E01E071C
:100A2E0080F0F80131978F01AA81BB811496ED9366
:100A3E00FC93AA81BB8112960E94E3073197AC8189
:100A4E00A083AA81BB810E944308FF2312F00E945B
:100A5E00E30706C0AA81BB81EFEFFFEFED93FC9396
:100A6E001981088125960895BA93AA9326970E9414
:100A7E00790810E0AC85BD85E0E0F0E0ED93FC93E5
:100A8E00EA89FB893196EA8BFB8B3197E4912E2F05
:100A9E00E03009F415C1E12FE03039F4253211F4BC
:100AAE0011E002C00E94E9070AC1E130A9F4253223
:100ABE0019F40E94E90702C112E040E000E02D3275
:100ACE0011F401E0FCC02B3211F44BE2F8C02032DD
:100ADE0011F440E2F4C002C0E23039F450E013E009
:100AEE00203311F40068EBC003C0E33009F0E7C017
:100AFE00203310F02A3308F007C0AAE05A9F502D79
:100B0E00E22FE0535E0FDBC0E22FE33649F40E9482
:100B1E00F007E889F989A481AA930E94F607CEC04E
:100B2E00E33741F40E94F0070E94FC070E94BC06C6
:100B3E001E2F0AC0E03761F40E94F0070E94FC07E6
:100B4E000E94C8061E2F086002600F7730E034C086
:100B5E00E43611F0E93611F4046002C0E53731F4E1
:100B6E00E4E5F0E0EE83FF8315E00CC0E83511F408
:100B7E00086003C0E83709F0A1C0EEE5F0E0EE83AF
:100B8E00FF8314E002FF14C00E94F0070E940608C3
:100B9E00AB85AA233AF4EA85FB850E942C08EA87E6
:100BAE00FB874DE2403011F01F5F01C00B7F04C088
:100BBE000E94F0070E94060800FD11C0151778F478
:100BCE0007FF08C002FF04C00B7F242F115001C085
:100BDE0020E301C020E20E94E9075150EFCF312FF0
:100BEE0001FF17C03030A1F003FF06C0EE81FF8178
:100BFE002591EE83FF8305C0AE81BF812D91AE831B
:100C0E00BF830E94E907503009F051503150EACFAE
:100C1E004BC020E3EE81FF810E944708E887F987E9
:100C2E00EE81FF813296EE83FF83E885F985AA85F2
:100C3E00BB85AE17BF0750F02F5FA885B985EA8533
:100C4E00FB85EA1BFB0BEA87FB87EFCF2A3328F0E5
:100C5E0003FF02C0295F01C0295D04FD1AC02133C4
:100C6E0020F4A885B985119709F409C0531710F01F
:100C7E0000FF01C013C020E207FF0BC020E300619C
:100C8E0002FF07C00B7F4A930E94F607503009F00F
:100C9E0051500E94E907503009F051503150A8854B
:100CAE00B985129708F0B5CF00FF08C0503031F06B
:100CBE005150E0E2EA930E94F607F8CF10E0E0CE42
:100CCE00AC85BD850E9443080E94800864960895F5
:100CDE00FF92F82E26970E947B080E940E083097EE
:100CEE0019F4EFEFFFEF1DC0DE0116960E942808E3
:100CFE008D010E940E08EE83FF83E0E0E887E9870E
:100D0E00DE011A960E941508E1E0F5E0FA93EA93E7
:100D1E00DE011A96A9DE9F01AE81BF81E0E0EC9361
:100D2E00F9010E9482082A96FF900895FF92F82EEC
:100D3E0026971A930A93DE0114960E9428088D01B5
:100D4E00E0E0EC83ED83EE83EF83DE0118960E94E4
:100D5E001508E7EFF4E0FA93EA93DE01189684DEC5
:100D6E00198108812896FF900895BA93AA93A991A4
:100D7E00B991EE27FF276D91662311F03196FBCFC7
:100D8E000895BA93AA93AA27BB27E991F9910590E2
:100D9E00002011F01196FBCFFD010895E0E0E093E5
:100DAE001C03E0931D030895EAE0F0E04E165F0683
:100DBE000895A0911C03B0911D03EAE00E943D0826
:100DCE00E40DF51DE0931C03F0931D03E8E0F3E042
:100DDE00FA93EA93EEE6F0E0FA93EA93F2016627CD
:100DEE0077270E944B0884E00E946F062896A8E0A1
:100DFE00B3E00C94A004EFE0F0E0E415F5050895DF
:100E0E00E0911C03F0911D030895EAE0F0E0E41573
:100E1E00F5050895EA93A0E00C946104A0E0B0E01B
:100E2E000E9454080895E5B3EF7CE5BB0C94720460
:100E3E000E94A004E0E0EA93A1E00E9461040E94F7
:100E4E002401E0931E03F0931F0330970895E09161
:100E5E001E03F0911F0308950E9460080C94720403
:100E6E00EAE0EA93A1E00E946104AAE9B0E00E94E0
:100E7E00B004EBE0CFCFE0EAF0E0FA93EA93C0DF04
:100E8E00662777270E944B0884E00E949D062696CF
:100E9E00E0E0EA93A1E00E946104A5EAB0E00E94BE
:100EAE00B004EBE0B7CFAAEAB0E00E94B00476CF70
:100EBE00EDE0F0E0E415F5050895EEE0F0E0E41560
:100ECE00F50508950E94ED032F0195CFE3E0F0E0C4
:100EDE003F010C9472040E94A004E0E0EA93A1E0AA
:100EEE000C9461043196DF010E9450080895A8EE1B
:100EFE00B3E00C941E080E9438083196DF01A7DF7C
:100F0E00ABCF0E9438083396DF01A1CF0E94720446
:100F1E00E8E0F3E0FA93EA9308950E943808E2CFEE
:100F2E00662777270E944B0808950E94380833964B
:100F3E00DF010E945008F4CFA8E0B3E00E94A004A5
:100F4E00D6CFE1E4F1E0FA93EA93F501E6CF84E03F
:100F5E000E946F0628960895A8E0B3E0BCCFE8E0A3
:100F6E00F3E0FA93EA93E9E4F1E0FA93EA93F501F8
:100F7E00DCCFFA93EA93F50131970895E0EFEBBBDE
:100F8E00AC2DBB270E941E08E9B3E07FE03F089519
:100F9E00A4E0A09FF001A19FF00D08950E945504BA
:100FAE00A3E0B0E00C941E08A0E30E94400488EC7D
:100FBE0090E00197F1F70895ED91FD913196FE9332
:100FCE00EE9308952A93AD85BE85EF85F889099530
:100FDE000895E889F9893497E88BF98B0895AD85E2
:100FEE00BE85EF85F88909950895A889B989149663
:100FFE000E944308EE83FF83AE81BF810895A889C6
:10100E00B98914960E944308EA87FB870895DE018A
:10101E001C960E9428080E94430808950E942808E2
:10102E000E944308FA93EA931A930A93089510962E
:10103E0039F080ED97E00197F1F7A8951197C9F770
:10104E0008950024AF0DB01D0895F195E195F0407F
:10105E000895EE230E2EEA2F19F0EE0F0A94E9F7FB
:10106E000895EE0FFF1FEE0FFF1F08956E2F6A9F5C
:10107E00F0016B9FF00D0895ED91FC91119708957D
:10108E000590F491E02D08957A936A93FA93EA937A
:10109E000895119602D0FE2F1197E199FECFFF937E
:1010AE00FFB7F894AEBBBFBBE09AEDB3FFBFFF91A5
:1010BE00089507D01196EF93EF2F03D0EF9111976C
:1010CE000895E19B02C0A895FCCF9FB7F894AEBBE4
:1010DE00BFBBE09A8DB3E81719F0EDBBE29AE19A27
:1010EE009FBF08955A934A933A932A931A930A9359
:1010FE0008955D814C813B812A8119810881089573
:00000001FF
