:100000000C9442000C9400000C9400000C9400002E
:100010000C9400000C9400000C9400000C94000060
:100020000C9400000C9400000C9400000C94000050
:100030000C9400000C9400000C9400000C94000040
:100040000C9400000C9400000C9400000C94000030
:100050000C9400001027E80364000A00010000105F
:100060000001100001000000000001000200040077
:100070000800256400000400040066000700600218
:100080006A000000F894EE27ECBBF1E0FBBFEBBF89
:10009000E5BF8DE0A2E0BB27ED938A95E9F780E00C
:1000A00098E0A0E6ED930197E9F7E6E7F0E08591A7
:1000B0009591009761F0A591B59105901590BF01BC
:1000C000F00105900D920197E1F7FB01F0CFEFE50C
:1000D000EDBFE8E0EEBFC0E6D2E00C946F00EFEFBA
:1000E000E7BBE0E0EBB9E8E1EAB9E6E8E0BDE0E073
:1000F000E0BDE3E3E9B9E2E7F0E0FA93EA93E4E094
:10010000F0E060E070E00E94950284E00E940C0242
:100110002696662477246414750404F5A8E6B2E0F4
:100120000E948B02EF5FFF4F6F4F7F4F0E94900244
:10013000E0916802F0916902E370F070A0E6B2E02D
:10014000EE0FFF1FAE0FBF1FEC91E8BBA8EEB3E0B0
:100150000E946D02F30131963F01DDCFCCCFFFCF7E
:100160005F9BFECFECB10895BA93AA931A93A9812D
:10017000BA81E0E0EC93AB81BC81EC911E2FE030C2
:1001800019F0E0E0EC9302C0EBDF1E2FE12F1881A5
:1001900025960895FF92BA93AA9324970E949A02F3
:1001A000E0E0F0E0E887F9874E2FE889F989319699
:1001B000E88BF98B3197E4913E2FE03009F425C1AB
:1001C0000E945202C1F0EDB7FEB7FA93EA934F9343
:1001D0000E9457024F913E2FE03019F00E945202C8
:1001E00009F407C00E945D021CF4EFEFFFEF0FC19E
:1001F000EACF432F09C1353209F0EEC050E0E8895B
:10020000F9893591E88BF98B303310F03A3308F0E7
:1002100007C0AAE05A9F502DE32FE0535E0FEFCFA7
:10022000303009F4F2C0EDB7FEB7FA93EA934F937A
:100230000E9457024F912E2FAE2F0E943802E030BD
:1002400039F00E945D021CF4EFEFFFEFE0C0EBCF4E
:10025000203009F4D1C0422F503009F45FEFE32F72
:10026000E33699F40E946202EDB7FEB7FA93EA937F
:100270004F930E9457024F91D801EC930E945D0268
:100280001CF4EFEFFFEFC3C0A1C0E33741F50E94BC
:100290006202E52F5150E030F1F0EDB7FEB7FA936E
:1002A000EA934F930E9457024F913E2FE03019F08E
:1002B0000E94520239F00E945D021CF4EFEFFFEF42
:1002C000A6C009C01F930F930F5F1F4FE32FAF917D
:1002D000BF91EC93DECFD801E0E0EC9377C0689457
:1002E000F1F8E894F2F8E32FE43611F0E93619F466
:1002F000E894F1F802C0E53711F42AE008C0E837C5
:1003000011F420E104C0E53209F466C07EC0E0E0EB
:10031000EE83EF836894F0F8E52F5150E03009F454
:1003200046C0EDB7FEB7FA93EA934F930E94570287
:100330004F913E2FE13238F40E945D021CF4EFEF42
:10034000FFEF65C017C0F1FC08C06894F1F83D32BA
:1003500011F4F2F8E1CF3B32F9F2203131F4A32F5E
:100360000E944302E03031F009C0A32F0E942F0207
:10037000E03021F4F0FC49C0432F19C0313610F0B1
:10038000375505C0313410F0375301C03053E22FD8
:10039000AE81BF81F0E00E947F02DF01E32FF0E039
:1003A000EA0FFB1FEE83FF83E894F0F8B5CF0E94BD
:1003B0006202F2FE06C0EE81FF810E947B02EE83A4
:1003C000FF83EE81FF81D801ED93FC93E885F985E9
:1003D0003196E887F98718C0EDB7FEB7FA93EA932C
:1003E0004F930E9457024F91E31771F00E945D02F4
:1003F0001CF4EFEFFFEF0BC0E885F985309719F497
:10040000EFEFFFEF04C001C0D0CEE885F9850E9470
:10041000A1026296FF900895FF92F82E23971A93F7
:100420000A93DE0111960E9477028D01E0E0EB83D2
:10043000EC83DE0115960E9477020E948702FA93F0
:10044000EA931A930A93E4EBF0E0FA93EA93DE015D
:100450001896A0DE198108812596FF900895AA9329
:10046000E1E0F991F03310F0FA3308F0EE27089547
:10047000AA93E1E0F991F03229F0F93010F0FE3062
:1004800008F0EE270895AA93E1E0F991F05340F0C7
:10049000FA3038F0FF75F750FA3010F0F03108F00C
:1004A000EE270895A32F0E943802E0300895AC850E
:1004B000BD85EE85FF8509950895AA85BB85AC911C
:1004C000A0300895EE85FF853497EE87FF87AE85CF
:1004D000BF8514960D911C910895109639F080ED0A
:1004E00097E00197F1F7A8951197C9F708950024AF
:1004F000AF0DB01D0895F195E195F0400895FA9F74
:10050000F02DEB9FF00DEA9FE02DF10D0895ED9198
:10051000FC9111970895ED91FD916D917D91089554
:100520007E936E93FE93EE9308957A936A93FA9373
:10053000EA9308955A934A933A932A931A930A9303
:1005400008955D814C813B812A811981088108953C
:00000001FF
