:0C0000000C9437000C9400000C940000DD
:10000C000C9400000C9400000C9400000C94000064
:10001C000C9400000C9400000C9400000C94000054
:10002C000C9464000C9400000C9400000C940000E0
:10003C000C9400000C9400000C9400000C94000034
:10004C000C9400000C940000000000000000000064
:10005C00000000000100020054000A0004005600D9
:10006C000000F894EE27ECBBF1E0FBBFEBBFE5BF63
:10007C008DE0A2E0BB27ED938A95E9F780E098E04C
:10008C00A0E6ED930197E9F7E0E6F0E08591959114
:10009C00009761F0A591B59105901590BF01F00105
:1000AC0005900D920197E1F7FB01F0CFEFE5EDBF65
:1000BC00E8E0EEBFC0E6D2E00C94F4010A92EA93B9
:1000CC00FA93EFB7EA9321FE81C1F40131964F0107
:1000DC0031970C2C0D28A9F4A0D111F4E9E0EBBB5D
:1000EC00A1D111F4E5E0EBBBA2D111F4E6E0EBBB3E
:1000FC00A3D109F4A6D1AAD124F0ADD1B5D10CF07D
:10010C00B8D1E1E0F0E0EC15FD05A9F486D111F4CD
:10011C00E9E0EBBB87D111F4E5E0EBBB88D111F43E
:10012C00E6E0EBBB89D109F48CD1A9D124F093D1B1
:10013C00ABD10CF09ED1E2E0F0E0EC15FD05A9F49A
:10014C006CD111F4E9E0EBBB6DD111F4E5E0EBBB44
:10015C006ED111F4E6E0EBBB6FD109F472D199D1F9
:10016C0024F079D19BD10CF084D1E3E0F0E0EC15D4
:10017C00FD05D9F452D111F4E9E0EBBB53D111F4E4
:10018C00E5E0EBBB54D111F4E6E0EBBB55D109F43F
:10019C0058D1E4E1F0E08E169F063CF05CD1E2E32E
:1001AC00F0E0AE16BF060CF064D1E4E0F0E0EC1524
:1001BC00FD05A9F432D111F4E9E0EBBB33D111F414
:1001CC00E5E0EBBB34D111F4E6E0EBBB35D109F43F
:1001DC0038D15FD124F03FD161D10CF04AD1E5E0A8
:1001EC00F0E0EC15FD05A9F418D111F4E9E0EBBB36
:1001FC0019D111F4E5E0EBBB1AD111F4E6E0EBBB3D
:10020C001BD109F41ED13BD124F025D13DD10CF0EA
:10021C0030D1E6E0F0E0EC15FD05C9F4FED011F4A8
:10022C00E9E0EBBBFFD011F4E5E0EBBB00D111F43E
:10023C00E6E0EBBB01D109F404D108D144F00BD1B9
:10024C0013D12CF0AA24BB24E8E0F0E06F01E8E025
:10025C00F0E0EC15FD05A9F4E0D011F4EAE0EBBBFD
:10026C00E1D011F4E6E0EBBBE2D011F4E5E0EBBB3E
:10027C00E3D009F418D1EAD024F0EDD0F5D00CF08D
:10028C00F8D0E9E0F0E0EC15FD05A9F4C6D011F4C6
:10029C00EAE0EBBBC7D011F4E6E0EBBBC8D011F43D
:1002AC00E5E0EBBBC9D009F4FED0E9D024F0D3D003
:1002BC00EBD00CF0DED0EAE0F0E0EC15FD05A9F493
:1002CC00ACD011F4EAE0EBBBADD011F4E6E0EBBB43
:1002DC00AED011F4E5E0EBBBAFD009F4E4D0D9D04B
:1002EC0024F0B9D0DBD00CF0C4D0EBE0F0E0EC158E
:1002FC00FD05D9F492D011F4EAE0EBBB93D011F4E4
:10030C00E6E0EBBB94D011F4E5E0EBBB95D009F43F
:10031C00CAD0E4E1F0E08E169F063CF09CD0E2E3FC
:10032C00F0E0AE16BF060CF0A4D0ECE0F0E0EC155B
:10033C00FD05A9F472D011F4EAE0EBBB73D011F413
:10034C00E6E0EBBB74D011F4E5E0EBBB75D009F43F
:10035C00AAD09FD024F07FD0A1D00CF08AD0EDE0B1
:10036C00F0E0EC15FD05A9F458D011F4EAE0EBBB74
:10037C0059D011F4E6E0EBBB5AD011F4E5E0EBBB3D
:10038C005BD009F490D07BD024F065D07DD00CF0FC
:10039C0070D0EEE0F0E0EC15FD05C1F43ED011F4A8
:1003AC00EAE0EBBB3FD011F4E6E0EBBB40D011F43C
:1003BC00E5E0EBBB41D009F476D048D03CF04BD013
:1003CC0053D024F0AA24BB24CC24DD24E4E6E2BFE1
:1003DC00E991EFBFF991E99109901895EFEFEABB1C
:1003EC00EAE0EBBBE1E0E4BBE4E0E5BBE3BFE4E661
:1003FC00E2BFE0E0ECBFE1E0E9BF78949A9902C07B
:10040C0020FE01C004C0689420F8E2E02E269A9BDE
:10041C0002C0E89420F8F2CFFFCFE1E0F0E0E41561
:10042C00F5050895E2E0F0E0E415F5050895E3E044
:10043C00F0E0E415F5050895E4E0F0E0E415F505C9
:10044C000895EAE0EBBB442455240895E8ECF0E071
:10045C008E169F06089588249924F50131965F0124
:10046C00F20131962F010895E5E0F0E0AE16BF06DB
:10047C000895AA24BB24F60131966F010895E4E691
:10048C00F0E08E169F060895EAE0F0E0AE16BF0687
:10049C000895E2E3F0E08E169F060895E4E1F0E0A3
:1004AC00AE16BF060895E9E0EBBB4424552408952D
:00000001FF
