:100000000C9434000C9400000C9400000C9400003C
:100010000C9400000C9400000C9400000C94000060
:100020000C9400000C9400000C9400000C946100EF
:100030000C9400000C9400000C9400000C94000040
:100040000C9400000C9400000C9400000C94000030
:100050000C940000000000000000010002005400A9
:100060000400040056000000F894EE27ECBBF1E019
:10007000FBBFEBBFE5BF8DE0A2E0BB27ED938A9508
:10008000E9F780E098E0A0E6ED930197E9F7EAE56B
:10009000F0E085919591009761F0A591B59105905B
:1000A0001590BF01F00105900D920197E1F7FB015A
:1000B000F0CFEFE5EDBFE8E0EEBFC0E6D2E00C9494
:1000C000BF000A921A929A93AA93BA93EA93FA9368
:1000D000EFB7EA93D301E2E0F0E00E94020130972B
:1000E00011F421FC01C01BC06DD011F4E9E0EBBBA1
:1000F000E2E0F0E0E415F50511F4E5E0EBBBE3E048
:10010000F0E0E415F50511F4E6E0EBBBE4E0F0E027
:10011000E415F50521F4EAE0EBBB44245524D301B2
:10012000E2E0F0E00E940201E130A0E0FA07D9F439
:1001300049D011F4EAE0EBBBE2E0F0E0E415F505AC
:1001400011F4E6E0EBBBE3E0F0E0E415F50511F4B3
:10015000E5E0EBBBE4E0F0E0E415F50521F4E9E0CF
:10016000EBBB44245524E4E6E2BFE991EFBFF991EB
:10017000E991B991A9919991199009901895EFEF8A
:10018000EABBE1E0EBBBE0E0E4BBE4E0E5BBE3BFFE
:10019000E4E6E2BFE0E0ECBFE1E0E9BF78949A99E1
:1001A00002C020FE01C008C0689420F844245524F1
:1001B000F30131963F0121F89A9B02C0E89420F8A0
:1001C000EECFFFCFF20131962F013197E1E0F0E061
:1001D000E415F5050895F195E195F04008950024A2
:1001E000112490E1AA0FBB1F001C111C0E1A1F0A3C
:1001F00018F40E0E1F1E01C0A1609A9599F7FD011B
:10020000D0010895E894B7FF04C0A095B095119669
:100210006894F7FDE0DFE3DFFD010EF4DCDF089515
:00000001FF
