:040000000C943C0020
:100004000C9400000C9400000C9400000C9400006C
:100014000C9400000C9400000C9400000C9400005C
:100024000C9400000C9400000C9400000C9400004C
:100034000C9400000C9400000C9400000C9400003C
:100044000C9400000C9400000C9400000C9400002C
:100054001027E80364000A000100001000011000EA
:100064000100533D25642020000080C002007E0171
:100074006E000000F894EE27ECBBF1E0FBBFEBBF91
:10008400E5BF8DE0A2E0BB27ED938A95E9F780E018
:1000940094E0A0E6ED930197E9F7E0E7F0E08591BD
:1000A4009591009761F0A591B59105901590BF01C8
:1000B400F00105900D920197E1F7FB01F0CFEFE518
:1000C400EDBFE4E0EEBFC0E6D1E00C947600AA9365
:1000D400E881E7B98BE18A95F1F7369A349BFECF34
:1000E400349AE4B1F5B156C100E010E0E0E0EABBB7
:1000F400EBBBE7BBE8BBE4BBE5BBEFEFE1BBE0E098
:10010400E2BBE3BFE2BFECBFE1EAEFBDEBE0EEBD73
:10011400E0E0EDBDECBDE7BDE6BDEBBDEABDE9BD8C
:10012400E8BDE2BDE5BDE4BDE3BDE9BFE5BFE4BFB5
:10013400EAB9E0E8E8B9E0E0E7B9E6E8E6B9E0E022
:10014400E0BFEDB9E6BF0E948F03E0E0EABDE8BD81
:10015400A0E1F4D0E0E0EA93A0E0B1D000E010E048
:10016400A6E00E94940310F00F5F1F4FA5E00E94C9
:10017400940310F00E5F1F4FA4E00E94940310F04C
:100184000C5F1F4FA3E00E94940310F0085F1F4F01
:10019400A2E09DDFE935A2E0FA0710F0005F1F4FEF
:1001A400A0E095DFED3BA2E0FA0710F0005E1F4FE0
:1001B400A1E00E94940310F0005C1F4FE0E6F1E020
:1001C400FA93EA93E6E6F0E0FA93EA93F8010E94E0
:1001D400EA030E94F70384E00E9442032896A0E603
:1001E400B1E09BD0F801E830A0E0FA0729F40E94BE
:1001F4008F030E949A0341C0E430A0E0FA0739F467
:100204000E948F03E0E5EABDEDE7E8BD36C0E230C9
:10021400A0E0FA0739F40E948F03EDE2EABDEDE7AE
:10022400E8BD2BC0E130A0E0FA0739F4909A919828
:10023400929A93980E949A0320C0E031A0E0FA07B2
:1002440039F40E948F03EDE7EABDE0E5E8BD15C08F
:10025400E032A0E0FA0739F40E948F03EDE7EABD2B
:10026400EDE2E8BD0AC0E034A0E0FA0731F490986A
:10027400919A9298939A0E949A036CCFFFCFAA9373
:10028400E5B3EF70AE2FE881E07FEA2BE5BB8DE0AC
:100294008A95F1F7AA9A8DE08A95F1F7AA988DE0EC
:1002A4008A95F1F777C0AA93A881E9DFE881E295FE
:1002B400E883A881E4DF85E88A95F1F76BC0AA9307
:1002C400E881F0E0E258FE4FE081A981AE0FEBDF58
:1002D4005980488022960895A2E00E949E03ACE0D3
:1002E400E2DFA1E00E949E03E0E04E2E5E2E089520
:1002F400AA93A881AA3011F0571448F0E0E0EA93D9
:100304004394A42DDCDFA881AA3009F443C053949C
:10031400A89AA881C8DFA8983DC0BA93AA931A9353
:10032400A981BA81ED91A983BA831E2FE03019F017
:10033400A12FDEDFF5CF188123960895AA93E4B3A5
:10034400E06FE4BBA29AA09AA19AAA98A898A99847
:100354007880E881E058E0938001E881E054E093FC
:100364008101A4E1B0E00E94D8030E94A4030E948A
:10037400A4030E94A403A0E282DF88EC90E001972A
:10038400F1F7A8E290DFA4E08EDFA5E88CDFA6E019
:100394008ADFA2DF21960895BA93AA931A930A9347
:1003A400AA81BB8112960E94EF03309759F1AA816A
:1003B400BB8114960E94EF038F01309761F00230E5
:1003C400E0E01E0798F0F80131978F01AA81BB8104
:1003D4001496ED93FC93AA81BB811296ED91FD9145
:1003E4003196FE93EE933197AC81A083AA81BB81B1
:1003F4000E94EF03FF232AF0ED91FD913196FE93C5
:10040400EE9306C0AA81BB81EFEFFFEFED93FC935F
:100414001981088125960895BA93AA9326970E9474
:10042400FC0310E0AC85BD85E0E0F0E0ED93FC93C7
:10043400EA89FB893196EA8BFB8B3197E4912E2F65
:10044400E03009F415C1E12FE03039F4253211F41C
:1004540011E002C00E94AC030AC1E130A9F42532C4
:1004640019F40E94AC0302C112E040E000E02D3216
:1004740011F401E0FCC02B3211F44BE2F8C020323D
:1004840011F440E2F4C002C0E23039F450E013E069
:10049400203311F40068EBC003C0E33009F0E7C077
:1004A400203310F02A3308F007C0AAE05A9F502DD9
:1004B400E22FE0535E0FDBC0E22FE33649F40E94E3
:1004C400B303E889F989A481AA930E94B903CEC031
:1004D400E33741F40E94B3030E94BF030E947603F2
:1004E4001E2F0AC0E03761F40E94B3030E94BF03C9
:1004F4000E9482031E2F086002600F7730E034C030
:10050400E43611F0E93611F4046002C0E53731F441
:10051400E4E5F0E0EE83FF8315E00CC0E83511F468
:10052400086003C0E83709F0A1C0EEE5F0E0EE830F
:10053400FF8314E002FF14C00E94B3030E94C903A6
:10054400AB85AA233AF4EA85FB850E94E603EA8791
:10055400FB874DE2403011F01F5F01C00B7F04C0E8
:100564000E94B3030E94C90300FD11C0151778F45B
:1005740007FF08C002FF04C00B7F242F115001C0E5
:1005840020E301C020E20E94AC035150EFCF312F91
:1005940001FF17C03030A1F003FF06C0EE81FF81D8
:1005A4002591EE83FF8305C0AE81BF812D91AE837B
:1005B400BF830E94AC03503009F051503150EACF50
:1005C4004BC020E3EE81FF810E94F303E887F987A3
:1005D400EE81FF813296EE83FF83E885F985AA8553
:1005E400BB85AE17BF0750F02F5FA885B985EA8594
:1005F400FB85EA1BFB0BEA87FB87EFCF2A3328F046
:1006040003FF02C0295F01C0295D04FD1AC0213324
:1006140020F4A885B985119709F409C0531710F07F
:1006240000FF01C013C020E207FF0BC020E30061FC
:1006340002FF07C00B7F4A930E94B903503009F0B0
:1006440051500E94AC03503009F051503150A885EC
:10065400B985129708F0B5CF00FF08C0503031F0CB
:100664005150E0E2EA930E94B903F8CF10E0E0CEE3
:10067400AC85BD850E94EF030E940304649608952F
:10068400FF92F82E26970E94FE030E94D103309712
:1006940019F4EFEFFFEF23C0DE0116960E94E20388
:1006A4008D010E94D103EE83FF83E0E0E887E987B0
:1006B400DE011A960E94E2030E94EF03FA93EA9382
:1006C4001A930A93EEECF1E0FA93EA93DE011A9698
:1006D400A3DE9F01AE81BF81E0E0EC93F9010E94AB
:1006E40005042A96FF900895BA93AA93A991B99103
:1006F400EE27FF276D91662311F03196FBCF089505
:10070400BA93AA93AA27BB27E991F99105900020EF
:1007140011F01196FBCFFD010895909A919892984B
:10072400939A08950E946900E53FA1E0FA070895AD
:10073400EDE7EABDE8BD08950E945501A3E0B0E0ED
:100744000C94D803A0E30E94410188EC90E0019747
:10075400F1F708952A93AD85BE85EF85F88909954B
:100764000895E889F9893497E88BF98B0895AD8564
:10077400BE85EF85F88909950895A889B9891496E5
:100784000E94EF03EE83FF83AE81BF810895A889A1
:10079400B98914960E94EF03EA87FB870895DE0166
:1007A4001C960E94E2030E94EF030895109639F00C
:1007B40080ED97E00197F1F7A8951197C9F708958F
:1007C4000024AF0DB01D0895F195E195F040089512
:1007D4006F2F660F660B762F0895ED91FC9111979C
:1007E40008950590F491E02D08957A936A93FA930D
:1007F400EA9308955A934A933A932A931A930A933D
:1008040008955D814C813B812A8119810881089575
:00000001FF
