:100000000C9437000C9400000C9400000C94000039
:100010000C9400000C9400000C9400000C94000060
:100020000C9400000C9464000C9400000C940000EC
:100030000C9400000C9400000C9400000C94000040
:100040000C9400000C9400000C9400000C94000030
:100050000C94000000003F065B4F666D7D077F6FCC
:100060000200040054000A00600256000000F894E8
:10007000EE27ECBBF1E0FBBFEBBFE5BF8DE0A2E0FC
:10008000BB27ED938A95E9F780E098E0A0E6ED9331
:100090000197E9F7E0E6F0E085919591009761F02E
:1000A000A591B59105901590BF01F00105900D92B5
:1000B0000197E1F7FB01F0CFEFE5EDBFE8E0EEBF20
:1000C000C0E6D2E00C948700AA93BA93EA93FA931D
:1000D000EFB7EA93E7EFE5BBA0E6B2E0A40DB51DEC
:1000E000EC91E2BBF20131962F01EAE0F0E04E160E
:1000F0005F0614F044245524E2ECEDBDE7EFECBDBF
:10010000E991EFBFF991E991B991A9911895EFEFB4
:10011000E4BBE5BBE1BBE0E0E2BBEFBDE3E0EEBD8D
:10012000E2ECEDBDE7EFECBDE0E0E7BDE6BDEBBD29
:10013000EABDE9BDE8BDE4E0E9BF7894FFCFFFCFB9
:00000001FF
