:0A0000000C9433000C9400000C94E3
:10000A0000000C9400000C9400000C9400000C9466
:10001A0000000C9400000C9400000C9400000C9456
:10002A0000000C9460000C9400000C9400000C94E6
:10003A0000000C9400000C9400000C9400000C9436
:10004A0000000C9400000C94000000000000010065
:10005A00020054000200040056000000F894EE2743
:10006A00ECBBF1E0FBBFEBBFE5BF8DE0A2E0BB2735
:10007A00ED938A95E9F780E098E0A0E6ED93019781
:10008A00E9F7E8E5F0E085919591009761F0A5918F
:10009A00B59105901590BF01F00105900D92019759
:1000AA00E1F7FB01F0CFEFE5EDBFE8E0EEBFC0E618
:1000BA00D2E00C948F00EA93FA93EFB7EA9320FE0A
:1000CA0022C0F20131962F013197E1E0F0E0E41508
:1000DA00F50511F4E9E0EBBBE2E0F0E0E415F50523
:1000EA0011F4E5E0EBBBE3E0F0E0E415F50511F40B
:1000FA00E6E0EBBBE4E0F0E0E415F50521F4EAE024
:10010A00EBBB44245524E4E6E2BFE991EFBFF99141
:10011A00E9911895EFEFEABBE1E0EBBBE0E0E4BB65
:10012A00E4E0E5BBE3BFE4E6E2BFE0E0ECBFE1E028
:10013A00E9BF78949A9902C0689420F8FBCFFFCF60
:00000001FF
