:100000000C94EF000C9400000C9400000C94000081
:100010000C9400000C9400000C9400000C94000060
:100020000C9400000C9400000C9400000C94000050
:100030000C9400000C9400000C9400000C94000040
:100040000C9400000C9400000C9400000C94000030
:100050000C9400001027E80364000A00010000105F
:1000600000011000010000000000000003002564F2
:10007000005365742041646D696E2049443A005311
:1000800065742041646D696E20706173733A00631A
:100090007265617465206E657720757365723F00C7
:1000A0004564697420757365723F007573652075CA
:1000B000702F646F776E00456E746572205573659E
:1000C000722049443A00536574205573657220705C
:1000D0006173733A00536574205573657220494407
:1000E0003A00757365723A256420506173733A253E
:1000F0006420202020736176656400656469742043
:1001000049443F00656469742070617373776F724E
:10011000643F0064656C65746520757365723F00AB
:10012000757365723A256400706173733A256400D3
:10013000757365722069643A25640064656C657442
:10014000653F00736574206D6F746F722073706506
:1001500065643A000A000700080009000B0004006B
:10016000050006000C000100020003000D000E0057
:1001700000000F0080C00700060066000E0060024D
:10018000710010006E027F000C007E02AB000F00B9
:100190008A02B7000F009902C6000D00A802D50020
:1001A0000F00B502C6000900C402FB000F00CD021B
:1001B00004010D00DC0213010600E902F50006004F
:1001C000EF02F5000800F5023B011100FD024301BA
:1001D0001F00280354010200480374010000F89432
:1001E000EE27ECBBF1E0FBBFEBBFE5BF8DE0A2E08B
:1001F000BB27ED938A95E9F780E098E0A0E6ED93C0
:100200000197E9F7E6E7F1E085919591009761F0B4
:10021000A591B59105901590BF01F00105900D9243
:100220000197E1F7FB01F0CFEFE5EDBFE8E0EEBFAE
:10023000C0E6D2E00C945301E0E0E0932203E093A7
:1002400023037DD2E030E9F78DD22F0145BAEAE0F1
:10025000F0E04E165F06C0F4A0912203B091230394
:100260000E946E07E40DF51DE0932203F093230333
:100270000E947606EEE6F0E0FA93EA93F2010E941D
:100280007B060E948006DDCF0E94880629F4E0915B
:100290002203F091230308950E948D0619F4E0E0F3
:1002A000F0E008950895EFEFE4BBE0E0EBB9E8E19A
:1002B000EAB9E6E8E0BDE0E0E0BDE3E3E9B9A0E1EA
:1002C0000E948604E0E0EA93A0E00E94250432D276
:1002D000A0E0B0E0E0E00E9499070E949206E130C1
:1002E00010F50E949706A0E6B2E00E949C06D9F0A5
:1002F0000E94AB06A1E0B0E00E94B006AEE6B2E01C
:100300000E949C0631F00E94AB06A3E0B0E00E9480
:100310009107A0E0B0E0E1E00E9499070E94360456
:10032000E1E0F0E03F01E1E0F0E0E615F70509F07B
:1003300043C0E5B3EF7CE5BBAC9A0E943604AFE85E
:10034000B0E00E947304FBD1E030E9F70E94B406EC
:1003500021F4E2E0F0E03F012FC00E948D0619F485
:100360006624772429C00E94B80631F50E9436041D
:10037000A0EAB0E00E947304E2D1E030E9F70E9405
:10038000B40659F40E94BD06AEE7B2E00E946404D0
:10039000A0EDB7E00E944F070FC00E948D0619F430
:1003A0006624772409C00E94B80629F0EDE0F0E049
:1003B000E415F50509F4C1CF062C072809F04DC056
:1003C0000E949706AAE8B2E00E949C0609F445C084
:1003D0000E943604A9E9B2E00E9464040E94C206A9
:1003E0002BDFE0932603F09327033097A1F18824B5
:1003F0009924E8ECF0E08E169F063CF5F4010E948B
:1004000069070F010E94C706A0912403B09125033C
:10041000EA17FB0759F4D00113960E948107A091B7
:100420002603B0912703EA17FB0709F00AC0082C3E
:10043000092819F4E1E0F0E002C0EAE0F0E03F0151
:1004400004C0F40131964F01D4CFE8ECF0E0E81598
:10045000F90509F4AD9A0E94CC06E2E0F0E0E61559
:10046000F705D9F50E949706A8EAB2E00E949C061B
:10047000A1F10E949206F0E00E94D006A5EBB2E046
:100480000E949C0639F00E949206F0E00E94D60677
:100490000E9491070E94DB06E2EEF0E0FA93EA93F5
:1004A0000E949206F0E00E94DE060E947B060E94F7
:1004B0009206F0E00E94E10688E00E9429062C9650
:1004C000AEE0B3E00E94E8060E949206EF5FA0E073
:1004D000B0E00E94990766247724E3E0F0E0E61597
:1004E000F70509F09CC02BD1E030E9F73BD12F0193
:1004F0000E94B80609F04AC00E943604A4ECB2E09B
:100500000E9464041CD1E030E9F70E94B40619F49B
:10051000E5E0F0E03F010E94B80691F50E94360444
:10052000ADECB2E00E9464040AD1E030E9F70E9429
:10053000B40619F4E6E0F0E03F010E94B806C9F401
:100540000E943604ACEDB2E00E946404F8D0E030C2
:10055000E9F70E94B40619F4E7E0F0E03F010E94D9
:10056000B80651F20E948D0619F4E1E0F0E03F0177
:1005700006C00E948D0619F4E1E0F0E03F0106C0DC
:100580000E948D0619F4E1E0F0E03F01EBE0F0E0BD
:10059000E415F505A9F40E94DB060E94EB060E9413
:1005A0007B060E9480060E94C2060E9476060E9478
:1005B000F1060E9480060E94CC06F50131965F018B
:1005C000ECE0F0E0E415F50599F40E94DB060E94EA
:1005D000EB060E947B060E9480060E94C2060E94D3
:1005E00076060E94F1060E948006F50131975F01B0
:1005F0000E948D0619F4E1E0F0E03F010024A01410
:10060000B00424F40E949206AE2EBB240E949206EF
:10061000D501F0E0EA17FB0714F4AA24BB24E5E0B7
:10062000F0E0E615F705E1F40E94DB06E0E2F1E018
:100630000E94F7060E94DE060E947B060E9480064A
:100640000E94C2060E94FC0659F0F50131970E94F3
:10065000D006A9EEB2E00E94E806E3E0F0E03F0138
:10066000E6E0F0E0E615F705E1F40E94DB06E8E2DB
:10067000F1E00E94F7060E94E1060E9480060E94B7
:10068000C2060E94FC0669F0F50131970E94D60669
:100690000E94B006AFEEB2E00E94E806E3E0F0E0B0
:1006A0003F01E7E0F0E0E615F70599F50E94DB066B
:1006B000E0E3F1E00E94F7060E94DE060E947B065E
:1006C0000E9480060E94C206A5EFB2E00E94640468
:1006D00036D0E030E9F70E94B406B1F4F501319765
:1006E0000E9469073196DF01E0E0F0E00E94910787
:1006F000F50131970E9469073396DF01E0E0F0E0F1
:100700000E9491070E94BD060E948D0611F40E946E
:10071000BD06EAE0F0E0E615F70551F4E5B3EF7C3D
:10072000E5BBAC9A0E943604ADEFB2E00E94E80649
:10073000D4CDFFCFEFE0EABBEFEFEBBB08950E9413
:10074000050761F00DC00E94050751F0A4E1B0E07B
:100750000E944F07E9B3E07FE03F11F0E1E0089528
:10076000E0E008950E94AC07EEDFE03009F447C0F6
:1007700020E030E000E010E00430E0E01E07D0F5BB
:10078000E02FA1E00E946107E095EBBBAC2DBB27F9
:100790000E944F07CC990AC00E940F07A8E2B3E05D
:1007A000EE0FFF1FAE0FBF1F2D913C91CD9909C0D9
:1007B0000E940F07DF01AA0FBB1FA65DBC4F2D9142
:1007C0003C91CE9909C00E940F07DF01AA0FBB1F01
:1007D000A45DBC4F2D913C91CF9909C00E940F0799
:1007E000DF01AA0FBB1FA25DBC4F2D913C910F5F93
:1007F0001F4FC2CFA4DFE030E9F3F90102C0EFEFF1
:10080000F0E00E94B30724960895AA93E8B3EF702E
:10081000AE2FE881E07FEA2BE8BB8DE08A95F1F707
:10082000C29A8DE08A95F1F7C2988DE08A95F1F72A
:100830009AC0AA93A881E9DFE881E295E883A881BC
:10084000E4DF85E88A95F1F78EC0AA93E881F0E0AD
:10085000E85BFC4FE081A981AE0FEBDFE981E0931B
:100860004C03E881E0934D0322960895A2E00E9494
:100870001507ACE0DEDFA1E00E941507E0E0E093A1
:100880004D03E0934C030895AA93A881AA3031F058
:10089000E0914E03A0914C03AE1760F0E0E0EA93C4
:1008A000A0914D03AF5FA0934D03CFDFA881AA3085
:1008B00009F459C0E0914C03EF5FE0934C03C09AF8
:1008C000A881B7DFC0984FC0BA93AA931A93A981A1
:1008D000BA81ED91A983BA831E2FE03019F0A12FC0
:1008E000D3DFF5CF10C0BA93AA931A93E981FA81A6
:1008F0003196E983FA833197E4911E2FE03019F0A5
:10090000A12FC2DFF3CF188123960895AA93E7B3EE
:10091000E06FE7BBBA9AB89AB99AC298C098C198E2
:10092000E881E0934E03E058E0934A03E881E05405
:10093000E0934B03A4E1B0E00E944F070E941B0725
:100940000E941B070E941B07A0E25FDF88EC90E07B
:100950000197F1F7A8E26DDFA4E06BDFA5E869DF9E
:10096000A6E067DF83DF21960895BA93AA931A93CE
:100970000A93AA81BB8112960E947407309759F19D
:10098000AA81BB8114960E9474078F01309761F091
:100990000230E0E01E0798F0F80131978F01AA813C
:1009A000BB811496ED93FC93AA81BB811296ED91C5
:1009B000FD913196FE93EE933197AC81A083AA818D
:1009C000BB810E947407FF232AF0ED91FD913196BF
:1009D000FE93EE9306C0AA81BB81EFEFFFEFED938C
:1009E000FC931981088125960895BA93AA932697B6
:1009F0000E94AA0710E0AC85BD85E0E0F0E0ED9331
:100A0000FC93EA89FB893196EA8BFB8B3197E49161
:100A10002E2FE03009F415C1E12FE03039F42532F2
:100A200011F411E002C00E9423070AC1E130A9F4C9
:100A3000253219F40E94230702C112E040E000E0D1
:100A40002D3211F401E0FCC02B3211F44BE2F8C05E
:100A5000203211F440E2F4C002C0E23039F450E038
:100A600013E0203311F40068EBC003C0E33009F059
:100A7000E7C0203310F02A3308F007C0AAE05A9FDD
:100A8000502DE22FE0535E0FDBC0E22FE33649F436
:100A90000E942A07E889F989A481AA930E94300755
:100AA000CEC0E33741F40E942A070E9436070E9415
:100AB0005D061E2F0AC0E03761F40E942A070E94DB
:100AC00036070E9469061E2F086002600F7730E02B
:100AD00034C0E43611F0E93611F4046002C0E537A1
:100AE00031F4E4E5F0E0EE83FF8315E00CC0E83577
:100AF00011F4086003C0E83709F0A1C0EEE5F0E0AA
:100B0000EE83FF8314E002FF14C00E942A070E94B4
:100B10004007AB85AA233AF4EA85FB850E945D076E
:100B2000EA87FB874DE2403011F01F5F01C00B7F69
:100B300004C00E942A070E94400700FD11C015173B
:100B400078F407FF08C002FF04C00B7F242F115068
:100B500001C020E301C020E20E9423075150EFCFE3
:100B6000312F01FF17C03030A1F003FF06C0EE8126
:100B7000FF812591EE83FF8305C0AE81BF812D915A
:100B8000AE83BF830E942307503009F0515031508B
:100B9000EACF4BC020E3EE81FF810E947807E8870F
:100BA000F987EE81FF813296EE83FF83E885F98530
:100BB000AA85BB85AE17BF0750F02F5FA885B98502
:100BC000EA85FB85EA1BFB0BEA87FB87EFCF2A331D
:100BD00028F003FF02C0295F01C0295D04FD1AC08F
:100BE000213320F4A885B985119709F409C053175A
:100BF00010F000FF01C013C020E207FF0BC020E38C
:100C0000006102FF07C00B7F4A930E9430075030FB
:100C100009F051500E942307503009F051503150D3
:100C2000A885B985129708F0B5CF00FF08C05030ED
:100C300031F05150E0E2EA930E943007F8CF10E023
:100C4000E0CEAC85BD850E9474070E94B107649612
:100C50000895FF92F82E26970E94AC070E9448073D
:100C6000309719F4EFEFFFEF23C0DE0116960E94D4
:100C700059078D010E944807EE83FF83E0E0E88773
:100C8000E987DE011A960E9459070E947407FA93B9
:100C9000EA931A930A93E5EBF4E0FA93EA93DE0100
:100CA0001A96A3DE9F01AE81BF81E0E0EC93F901CB
:100CB0000E94B3072A96FF900895BA93AA93A99128
:100CC000B991EE27FF276D91662311F03196FBCF86
:100CD0000895BA93AA93AA27BB27E991F9910590A1
:100CE000002011F01196FBCFFD010895EEE0F3E036
:100CF000FA93EA930895662777270E947C07089560
:100D000084E00E9429062896AEE0B3E00C946404C7
:100D1000EFE0F0E0E415F5050895EAE0F0E0E41511
:100D2000F5050895A0E0B0E00E9485070895E5B3B9
:100D3000EF7CE5BB0C9436040E946404E0E0EA9387
:100D4000A1E00E9425040E941C01E0932403F0937B
:100D5000250330970895E0912403F0912503089529
:100D60000E9491070C9436040E94B2032F01D0CF49
:100D7000EEE0F0E0E415F5050895E3E0F0E03F0172
:100D80000C943604E0E0EA93A1E00C94250431963B
:100D9000DF010E9481070895A8EEB3E00C944F078D
:100DA0000E9469073196DF01D6DFDACF0E9469071A
:100DB0003396DF01D0CF0E94360498CF0E94690796
:100DC000E6CF0E9469073396DF010E94810793CF27
:100DD0000E946404E1CFE0E2F1E0FA93EA93F501C6
:100DE000EDCFE8E2F1E0FA93EA93F501EACFFA9366
:100DF000EA93F501319708950E941C01E0932403C2
:100E0000F0932503A8DF30970895E0EFEBBBAC2DFE
:100E1000BB270E944F07E9B3E07FE03F0895A4E0BD
:100E2000A09FF001A19FF00D08950E941904A3E076
:100E3000B0E00C944F07A0E30E94050488EC90E01A
:100E40000197F1F708952A93AD85BE85EF85F8895E
:100E500009950895E889F9893497E88BF98B089505
:100E6000AD85BE85EF85F88909950895A889B9896A
:100E700014960E947407EE83FF83AE81BF810895AC
:100E8000A889B98914960E947407EA87FB87089598
:100E9000DE011C960E9459070E947407089510965F
:100EA00039F0A89580ED97E00197F1F71197C9F710
:100EB00008950024AF0DB01D0895F195E195F0401F
:100EC0000895EE230E2EEA2F19F0EE0F0A94E9F79B
:100ED0000895EE0FFF1FEE0FFF1F08956E2F6A9FFC
:100EE000F0016B9FF00D0895ED91FC91119708951D
:100EF0000590F491E02D08957A936A93FA93EA931A
:100F00000895119602D0FE2F1197E199FECFFF931D
:100F1000FFB7F894AEBBBFBBE09AEDB3FFBFFF9144
:100F2000089507D01196EF93EF2F03D0EF9111970B
:100F30000895E19B02C0A895FCCF9FB7F894AEBB83
:100F4000BFBBE09A8DB3E81719F0EDBBE29AE19AC6
:100F50009FBF08955A934A933A932A931A930A93F8
:100F600008955D814C813B812A8119810881089512
:00000001FF
