:060000000C9469000C9451
:1000060000000C9400000C9400000C9400000C946A
:1000160000000C9400000C9400000C9400000C945A
:1000260000000C9400000C9400000C9400000C944A
:1000360000000C9400000C9400000C9400000C943A
:1000460000000C9400000C9400000C9400000000CA
:1000560000001B00020054656D70203D20252E32E5
:100066006620DF25630075703D256420483D2564C4
:10007600204D3A004F4E20004F46460055705F54C3
:10008600656D70203D2025642020006879737465B5
:100096007265736973203D2025642020000080C0AE
:1000A6002D4E414E000001002D4E414E00494E4658
:1000B6000000010002005400060004005600020081
:1000C6008202A40001008602AC000000F894EE272C
:1000D600ECBBF1E0FBBFEBBFE5BF8DE0A2E0BB27C9
:1000E600ED938A95E9F780E098E0A0E6ED93019715
:1000F600E9F7E8EBF0E085919591009761F0A5911D
:10010600B59105901590BF01F00105900D920197EC
:10011600E1F7FB01F0CFEFE5EDBFE8E0EEBFC0E6AB
:10012600D2E00C94A400AA93E881E064E7B983E0E6
:100136008A95F1F7369A349BFECF349AE4B1F5B13D
:100146007DC1E0E0E7BBEFE0E8BBE0E4E7B9E3E868
:10015600E6B9E0E0E0BFA0E146D1B09902C020FEDA
:1001660001C00EC0689420F8F20131962F01E3E039
:10017600F0E0E415F50511F444245524F1D002C04D
:10018600E89420F8B19902C021FE01C019C0689414
:1001960021F80E948C0641F4ECE3F0E0E615F70541
:1001A6001CF0F30131963F010E94910641F4EEE105
:1001B600F0E0E815F9051CF0F40131964F0102C094
:1001C600E89421F8B29902C022FE01C017C06894D3
:1001D60022F80E948C0639F40024601470041CF086
:1001E600F30131973F010E94910639F400248014EF
:1001F60090041CF0F40131974F0102C0E89422F8F4
:10020600A0E091DF662777270E944108A0E0B0E0D2
:100216008AEF93E40E94CB08DF01CB01E0E0F0EC2B
:100226006FE774E40E941909E0936002F09361029B
:100236006093620270936302E0E0EA93A0E00E949A
:100246009606ECE5F0E0FA93EA93E0916002F0910D
:10025600610260916202709163020E94020AE3E405
:10026600F0E060E070E00E949D06042C052899F4F9
:100276000E94A706ECE6F0E00E94AB06F4010E949D
:1002860090090E949D0623FE03C0AAE7B0E002C0C3
:10029600AEE7B0E095D00E948C0641F40E94A70616
:1002A600E2E8F0E00E94AB060E94B3060E949106C7
:1002B60069F40E94A706E1E9F0E0FA93EA93F401F3
:1002C6000E9490090E94020A0E94B306F3010E944E
:1002D600BB0609F008F402C068940EC0F301E819E1
:1002E600F9090E94BB0609F008F402C023FC01C00C
:1002F60002C0689401C0E89423F8A8ECB0E00E941C
:10030600CB072BCFFFCFAA93E5B3EF70AE2FE881D3
:10031600E07FEA2BE5BB82E08A95F1F7AA9A82E0B4
:100326008A95F1F7AA9882E08A95F1F787C0AA9391
:10033600A881E9DFE881E295E883A881E4DF81E12D
:100346008A95F1F77BC0AA93E881F0E0EE57FD4F5E
:10035600E081A981AE0FEBDFB980A88022960895CF
:10036600A2E00E94CA06ACE0E2DFA1E00E94CA0653
:10037600E0E0AE2EBE2E0895AA93A881AA3011F011
:10038600BD1448F0E0E0EA93A394AA2DDCDFA8812F
:10039600AA3009F453C0B394A89AA881C8DFA898D4
:1003A6004DC0BA93AA931A93A981BA81ED91A983F4
:1003B600BA831E2FE03019F0A12FDEDFF5CF10C073
:1003C600BA93AA931A93E981FA813196E983FA835B
:1003D6003197E4911E2FE03019F0A12FCDDFF3CF36
:1003E600188123960895AA93E4B3E06FE4BBA29A1A
:1003F600A09AA19AAA98A898A998D880E881E058C6
:10040600E0938402E881E054E0938502A4E1B0E041
:100416000E94CB070E94D0060E94D0060E94D006FA
:10042600A0E271DF81E28A95F1F7A8E280DFA4E01D
:100436007EDFA5E87CDFA6E07ADF92DF21960895CD
:10044600BA93AA931A930A93AA81BB8112960E9421
:10045600E909309729F1AA81BB8114960E94E9091E
:100466008F01309761F00230E0E01E0780F0F8015E
:1004760031978F01AA81BB811496ED93FC93AA81D3
:10048600BB8112960E94D7063197AC81A083AA81C0
:10049600BB810E94E909FF2312F00E94D70606C01D
:1004A600AA81BB81EFEFFFEFED93FC9319810881E1
:1004B600259608950E94DD06E0E8EA83EFE3EB83E4
:1004C6000E941F0AEE85FF85EF3FAFEFFA0749F45A
:1004D600E885F985FA93EA93A6EAB0E00E947D05DD
:1004E600B7C0EF3FAFE7FA0749F4E885F985FA9315
:1004F600EA93A7EAB0E00E947D05AAC0AB85A730C3
:1005060010F0E6E0EB871B85E12F1150E03019F083
:100516000E94E406F9CFEC85FD856E857F850E94F5
:10052600190A21F430E00E94E4062DC03B850E94A2
:10053600F30609F008F40BC00E94E4060E94F306D5
:1005460028F00E94FE060E940307F8CF0DC00E9405
:10055600F30640F40E94FE060E940F070E9416074B
:100566003150F5CF0E94E406EC85FD856E857F85CA
:100576000E941B070E9416070E94F30620F00E94A5
:10058600FE060E94030710E0EB85E117A8F1AC8197
:10059600BD818E819F810E9422070E941B07DF0179
:1005A600CB010E94D405EC83FD836E837F830E947A
:1005B600FE060E9419090E9408080E2F0E942907AC
:1005C6000E943007FF27662777270E944108AC81E3
:1005D600BD818E819F810E94CB080E94FE060E94EB
:1005E60035070E941607E12F1F5FE03069F60E946B
:1005F6002907EEE2EC93C8CF0E943A073197AA8505
:10060600A08330302CF43195A885B985EDE203C07E
:10061600A885B985EBE2EC930E943A070E943A0757
:100626003197BF01A32FEAE00E94A309E05DDB0139
:10063600EC930E943A073197BF01A32FEAE00E948C
:10064600CD09E05DDB01EC93A885B985E0E0EC938C
:100656000E94260A60960895BA93AA93EF97619727
:100666000E941D0A10E0FE01E85AFF4F0190F0813A
:10067600E02DE887F987FE01EA5AFF4F0190F081E5
:10068600E02DEE83FF83AE81BF81E0E0F0E0ED93E5
:10069600FC93DE01A45ABF4F0E94D7063197E4911E
:1006A6002E2FE03009F4E9C1E12FE03039F425328C
:1006B60011F411E002C00E944007DEC1E130C1F42E
:1006C600253219F40E944007D6C112E0E0E0ED8B16
:1006D60000E02D3211F401E0CFC12B3219F4EBE228
:1006E600ED8BCAC1203219F4E0E2ED8BC5C102C020
:1006F600E23039F450E013E0203311F40068BCC155
:1007060002C0E33091F4203310F02A3308F007C01A
:10071600AAE05A9F502DE22FE0535E0FADC140E094
:100726002E3211F414E0A8C10FC0E43099F420333E
:1007360010F02A3308F008C00062AAE04A9F402D54
:10074600E22FE0534E0F98C12C3619F4026015E0E3
:1007560093C103C0E53009F08FC1E22FE33659F4A7
:100766000E9447070E944E070E944707A481AA934A
:100776000E94550780C1E53411F0E53609F403C03F
:10078600E63609F048C0FE017696EE87FF870E949E
:100796005B070E94ED090E9462070E946707AD850C
:1007A600AA2332F0AD89AB3259F0A03281F017C0DE
:1007B6000E9469070E94D5070E946207EDE2ED8B51
:1007C60007FF05C0ED89EA930E94550708C0EE852C
:1007D600FF853196EE87FF873197AD89A08305FFA8
:1007E60046E0263651F40E9469070E94020A4A939F
:1007F600AB89BC890E94EB0509C00E9469070E946B
:10080600020A4A932A93AC89BD8954DEFE01769684
:100816000E946E071EC0E33739F40E9467070E94E4
:1008260076070E946E070EC0E037C1F40E94670784
:100836000E947607EE87FF87AE85BF850E949605E4
:100846001E2F08600F77403011F0411708F001C0E5
:10085600142F40E0E0E0EC8B30E06DC0E43611F0A0
:10086600E93611F4046002C0E537A1F4EAE0EC8B46
:1008760001FF08C0E0E0FAEC6AE97BE30E947B072F
:100886001AE022C0E0E1F7E260E070E00E947B0738
:1008960015E01AC0E83511F4086003C0E83709F01E
:1008A600EAC0E0E1EC8B01FF08C0E0E0F0E060E0C8
:1008B60070E10E947B0718E007C0E0E0F0E160E02D
:1008C60070E00E947B0714E0403011F00F7701C002
:1008D60041E001FF08C00E9467070E945B0714966B
:1008E6000E94ED090FC002FF07C00E9467070E9421
:1008F60076070E94900906C00E9467070E94760745
:1009060066277727EA87FB876C877D8702FF12C0F9
:10091600AD85AA2342F40E9469070E9482090E94BB
:100926006207EDE2ED8BED89E03019F01F5F4F5F56
:1009360001C00B7F342F00FD14C0151710F43517B6
:1009460008F00FC007FF08C002FF04C00B7F2D8907
:10095600115001C020E301C020E20E94400751501F
:10096600ECCF141790F4006102FF06C00E948007C6
:1009760009F0515011504150E0E3EA930E945507A7
:10098600503009F051504150ECCF312FEC89E03016
:10099600B9F43030A1F003FF06C0EE85FF8525913E
:1009A600EE87FF8705C0AE85BF852D91AE87BF87D1
:1009B6000E944007503009F051503150EACF51C0E3
:1009C6000E9492070E94A8092E2F2A3030F003FFBA
:1009D60002C0295C01C0295A01C0205D04FD21C066
:1009E600213360F4A889B9898A899B89A130E0E01E
:1009F600BE07E0E08E07E0E09E0709F40BC0431750
:100A060040F4531710F000FF01C010C020E207FFAA
:100A160008C020E3006102FF04C00E94800709F0BD
:100A260051500E944007503009F0515031500E94F9
:100A360092070E94D9090E946207EC89A889B989A0
:100A46008A899B89FF27662777270E94A8090E9423
:100A56007B07E889F9896A897B890E94190A09F066
:100A6600AFCF00FF08C0503031F05150E0E2EA93BA
:100A76000E945507F8CF10E00CCEAE81BF810E94D0
:100A8600E9090E94240AEF966F960895FF92F82EC0
:100A960026970E941F0A0E949B07309719F4EFEFD2
:100AA600FFEF23C0DE0116960E947E098D010E948B
:100AB6009B07EE83FF83E0E0E887E987DE011A966D
:100AC6000E947E090E94E909FA93EA931A930A930F
:100AD600E3E2F2E0FA93EA93DE011A96BDDD9F01A6
:100AE600AE81BF81E0E0EC93F9010E94260A2A96C6
:100AF600FF900895BA93AA93E991F991A991B991B2
:100B0600CD0105900D920020E1F7FC010895BA93FE
:100B1600AA93A991B991EE27FF276D91662311F04B
:100B26003196FBCF0895BA93AA93AA27BB27E991DA
:100B3600F9910590002011F01196FBCFFD01089563
:100B46000E94070A7B816A81F981E88177FB770F2A
:100B560067FD7160972F9E5781F078F0983190F479
:100B6600AA27BB27882708948795B795A7959A95AE
:100B7600D1F7EA23FB23682305C0E8947727EE27FD
:100B8600FF2766276F77769508F4606877F9A9914D
:100B9600B99189919991EA17FB076807790797FB3D
:100BA60008950E94070A0E94F8090E94A3050E9460
:100BB600FD0919F40E94F30909C0E6F70E94F3093A
:100BC600A0E0B0E080E89FE30E94740824960895B0
:100BD600F1D0E0E0EA83EFE3EB831A930A93EB8527
:100BE600FC85EF3FAFEFFA0731F4A9D1AEEAB0E0EA
:100BF6000E947D058AC0EF3FAFE7FA0731F49FD127
:100C0600AFEAB0E00E947D0580C0AC85AA2352F40D
:100C1600E985FA856B857C850E94D50795D199D1A2
:100C2600EDE2EC93A885A73010F0E6E0E88718859A
:100C3600E12F1150E03021F093D101D196D1F8CFB8
:100C460099D10E947B0880D110E0E0E0F0E060E8F6
:100C56007FE38BD18FD10E945E0968F081D1DCD011
:100C660084D11F5F173230F06AD1A3EBB0E00E9447
:100C76007D054BC0EFCF103021F46BD1E0E3EC9350
:100C860020C0E12F1150E030E1F06AD1D8D0D0D0A9
:100C9600DF01CB010E94D40568D16CD10E941909ED
:100CA6000E9408080E2F55D1D8D0F0E059D10E94E5
:100CB60090090E9441080E94CB0865D1D3D044D147
:100CC600E0CFE885E030E9F044D1EEE2EC93E88548
:100CD600E150E887EF5FA9F056D19ED035D1E9857E
:100CE600FA856B857C850E9408080E2F32D1B5D017
:100CF600F0E049D10E9490090E944108B3D024D166
:100D0600E6CFAE81BF81E0E0EC93198108812D9694
:100D16000895E1E0F0E0E415F5050895E2E0F0E07D
:100D2600E415F50508950E94A601E4E6F2E0FA93BB
:100D3600EA9308950E94020A88E00E9449052C96CB
:100D4600A4E6B2E00C94D401E0E0EA93A1E0EBCF94
:100D5600FA93EA93F3010E9490090E94020A089509
:100D660084E00E9449052896A4E6B2E00C94D401DA
:100D7600A0916002B091610280916202909163023B
:100D86000E9490090E9441080E945E0908950E94EF
:100D96009A01A3E0B0E00C94CB07A0E30E94860181
:100DA60081E28A95F1F70895ED91FD913196FE93D2
:100DB600EE930895BA93AA932497E0E0E883E98333
:100DC6000895AC81BD818E819F81E0E0F0E060E214
:100DD60071E40E94CB08EC83FD836E837F830895C4
:100DE600EC81FD816E817F81AC85BD858E859F8579
:100DF6000E945E090895AC85BD858E859F85089500
:100E0600EDECFCEC6CEC7DE30E94CB08EC87FD87F7
:100E16006E877F873F5F0895E0E0F0E060E271E46F
:100E26000E94CB080895EC87FD876E877F8708951B
:100E3600A0E0B0E080E09FE30E947B080895EDEC1F
:100E4600FCEC6CEC7DE30E94CB080895A885B9857F
:100E56001196A887B98711970895E02FE05DEC9366
:100E6600E02F08950E940C0A0E9474080895E885F0
:100E7600F9853196E887F98708952A93AF81B88571
:100E8600E985FA8509950895FE01E65AFF4F019016
:100E9600F081E02D08953497DE01A65ABF4FED93F9
:100EA600FC930895AF81B885E985FA85099508957B
:100EB600DE01A65ABF4F0D90BC91A02D0895EA877A
:100EC600FB876C877D870895DFDFE5CFEA85FB85A5
:100ED6006C857D850895EE87FF87AE85BF850E9468
:100EE6008A051E2F0895E4DF14960E94E9090895E5
:100EF600E88BF98B6A8B7B8B08950B7FED89EA93E0
:100F0600DE01A95ABF4F0D90BC91A02DFE01E75AF4
:100F1600FF4F0190F081E02D099550300895E88942
:100F2600F9896A897B89AA85BB858C859D85089503
:100F3600DE011C960E947E090E94E9090895EE8151
:100F4600FF81FA93EA930895E987FA876B877C878E
:100F56000895AE81BF811196AE83BF831197089520
:100F6600AA81BB818C819D810895EA83FB836C8372
:100F76007D830895EA81FB816C817D81A985BA858F
:100F86008B859C850895A985BA858B859C85089552
:100F9600109639F0A8958AEF90E00197F1F711972E
:100FA600C9F7089530976040704009F07058089569
:100FB600552342F4503811F4E0FF04C03196691FFE
:100FC600791F6BF050E8572711F45F93CFC05F3F4E
:100FD60031F0660F000C57956795752F08955F934E
:100FE60000200AF0CFC0C8C050E8192E1522880F7D
:100FF600991F9527550F879550E8072E0522660FEE
:10100600771F7527550F67950895689401C0E89472
:101016005F93F2DF703818F07F3F08F4A7C056E1FF
:10102600571BAAF4519558300EF4593030F0EFEFB3
:10103600FFEF6FEF7FE777F91AC077275523B9F0EF
:10104600EE0FFF1F661F771F5A95D1F710C077273F
:10105600583028F0EF2FF62F672F5850F9CF552329
:1010660031F076956795F795E7955A95D1F7002073
:101076000AF445D15F910895689401C0E8943097C9
:1010860060407040B1F0002426F0772312F40094FB
:1010960036D1172E7EE1112032F07A95EE0FFF1F22
:1010A600661F111CF9CFEF2FF62F612D5F938ADF94
:1010B6005F9108954F93AF01FD01DA01AB01BC01C9
:1010C600CA01402D012C142E4F910895EA0FFB1FE3
:1010D600681F0895E095F0956095EF5FFF4F6F4F9D
:1010E60008955F9381DF903871F150E8152604C0AA
:1010F6005F937ADF903839F1703821F1572F591BF9
:101106002BF112F4D7DFFACF583118F0AA27BB27F4
:101116008827583028F0AB2FB82F88275850F9CF9A
:10112600552329F08695B795A7955A95D9F7502D49
:10113600512572F0CBDF38F46795F795E7957395EF
:1011460013F420C0B7DF3EDF5F910895D8F7FBCFD9
:10115600EA1BFB0B680B51F010F40094BBDF66230F
:1011660092F3EE0FFF1F661F7A95CBF7EE27FF2748
:10117600662777275F910895EFEFFFEF6FE77FEF21
:101186005F910895EFEFFFEF6FE77FE75F910895B7
:101196005F932ADF703851F3903841F301240894A5
:1011A600791F23F41CF300203AF3ECCF0F921F9320
:1011B6002F933F934F93112722279927689FA001CA
:1011C6008F9F302D410D591F6B9F300D411D591FAB
:1011D6008E9F27D0BF9F25D06A9F23D0BE9F1DD04C
:1011E600AF9F1BD0AE9F110D291F391F491F591FD5
:1011F600E32FF42F652F522F4F913F912F911F917F
:101206000F9066232AF0550FEE1FFF1F661F02C0C0
:1012160073954BF2CDDE5F910895100D211D391F98
:1012260002C0200D311D491F591F08955F93DCDE52
:10123600703821F411200AF49FCFA4CF903809F416
:1012460095CF01240894970B1BF4D4F30020F3CF19
:10125600792F1F932F933F934F9311241127222702
:1012660033274427552790E2AE17BF078607410765
:1012760030F0AE1BBF0B860B410B089401C088945F
:10128600551F221F331F111CAA1FBB1F881F441F77
:101296009A9551F7F901612D4F913F912F911F9129
:1012A600662332F0550FEE1FFF1F661F7A9543F235
:1012B6007FDE5F91089599239AF0772342F097177E
:1012C60048F029F4AE17BF07860720F031F098944E
:1012D6008894089598940894089518948894089585
:1012E6007723C2F7971798F3A9F7EA17FB0768075A
:1012F60088F399F3ECCF0024AF0DB01D0895F09557
:1013060060957095E195FF4F6F4F7F4F0895FE2FC3
:10131600FF0FFF0B6F2F7F2F08956F2F660F660B42
:10132600762F0895002498E0AA0F001C0E1A10F4D8
:101336000E0E01C0A1609A95B9F7EA2FA02D089567
:1013460039D0F0DF0EF4E19508953F934F935F9304
:10135600002411244427552730E2AA0FBB1F881FFB
:10136600991F001C111C441F551F0E1A1F0A460BFD
:10137600570B28F40E0E1F1E461F571F01C0A160F3
:101386003A9559F7FD01BC01D001CA015F914F9111
:101396003F910895E894A7FF02C0A1956894E7FDE0
:1013A600E195C0DFEA2F0EF4E1950895CEDFFD0149
:1013B600BC010895E894E7FF02C0E1956894A7FF91
:1013C60004C0A19500F8039400FA0895ED91FC91EC
:1013D60011970895ED91FD916D917C911397089564
:1013E600E881F9816A817B810895A881B9818A8122
:1013F6009B810895E883F9836A837B8308957A93B2
:101406006A93FA93EA9308959A938A93BA93AA935E
:101416000895182E862F612D192E972F712D1B2EAC
:10142600BF2FF12D1A2EAE2FE12D08953097604073
:10143600704008955A934A933A932A931A930A93BB
:1014460008955D814C813B812A8119810881089527
:00000001FF
