:100000000C944E000C9400000C9400000C94000022
:100010000C9400000C9400000C9400000C94000060
:100020000C9400000C9400000C9400000C94000050
:100030000C9400000C9400000C9400000C94000040
:100040000C9400000C9400000C9400000C94000030
:100050000C940000000054656D70203D20252E3268
:100060006620460054656D70203D20252E326620A6
:10007000DF25630080C02D4E414E000001002D4E53
:10008000414E00494E4600000100020054000200AB
:1000900082027400010086027C000000F894EE27C2
:1000A000ECBBF1E0FBBFEBBFE5BF8DE0A2E0BB27FF
:1000B000ED938A95E9F780E098E0A0E6ED9301974B
:1000C000E9F7E8E8F0E085919591009761F0A59156
:1000D000B59105901590BF01F00105900D92019723
:1000E000E1F7FB01F0CFEFE5EDBFE8E0EEBFC0E6E2
:1000F000D2E00C948900AA93E881E064E7B983E038
:100100008A95F1F7369A349BFECF349AE4B1F5B173
:10011000FDC0E0E0E7BBE8E0E8BBE0E4E7B9E3E826
:10012000E6B9E0E0E0BFA0E1C6D0B39902C020FE8E
:1001300001C006C0689420F8E2E02E268AD002C0F2
:10014000E89420F8A0E0D7DF662777270E947E0793
:10015000A0E0B0E08AEF93E40E940808DF01CB0141
:10016000E0E0F0EC6FE774E40E9456080E94F105AD
:10017000E0E0EA93A0E060D021FE23C0A0916002FD
:10018000B09161028091620290916302E6E6F6E628
:1001900066EE7FE30E940808A0E0B0E080E092E411
:1001A0000E94B8070E94F105E4E6F2E0FA93EA93B0
:1001B000E6E5F0E00E94FA0584E00E94AE0428968D
:1001C00012C0E4E6F2E0FA93EA93E4E6F0E00E947B
:1001D000FA05E3E4F0E060E070E00E943F0988E0A7
:1001E0000E94AE042C96A4E6B2E054D0A8ECB0E095
:1001F0000E9408079ACFFFCFAA93E5B3EF70AE2F06
:10020000E881E07FEA2BE5BB82E08A95F1F7AA9AC4
:1002100082E08A95F1F7AA9882E08A95F1F776C094
:10022000AA93A881E9DFE881E295E883A881E4DF69
:1002300081E18A95F1F76AC0AA93E881F0E0EE5770
:10024000FD4FE081A981AE0FEBDF598048802296F7
:100250000895A2E00E940706ACE0E2DFA1E00E9460
:100260000706E0E04E2E5E2E0895AA93A881AA30DC
:1002700011F0571448F0E0E0EA934394A42DDCDF3A
:10028000A881AA3009F442C05394A89AA881C8DF73
:10029000A8983CC0BA93AA931A93A981BA81ED9108
:1002A000A983BA831E2FE03019F0A12FDEDFF5CF2E
:1002B000188123960895AA93E4B3E06FE4BBA29A51
:1002C000A09AA19AAA98A898A9987880E881E0585D
:1002D000E0938402E881E054E0938502A4E1B0E079
:1002E0000E9408070E940D060E940D060E940D063E
:1002F000A0E282DF81E28A95F1F7A8E291DFA4E033
:100300008FDFA5E88DDFA6E08BDFA3DF21960895C0
:10031000BA93AA931A930A93AA81BB8112960E9458
:100320002609309729F1AA81BB8114960E942609DB
:100330008F01309761F00230E0E01E0780F0F80195
:1003400031978F01AA81BB811496ED93FC93AA810A
:10035000BB8112960E9414063197AC81A083AA81BA
:10036000BB810E942609FF2312F00E94140606C0DA
:10037000AA81BB81EFEFFFEFED93FC931981088118
:10038000259608950E941A06E0E8EA83EFE3EB83DE
:100390000E945C09EE85FF85EF3FAFEFFA0749F455
:1003A000E885F985FA93EA93A6E7B0E00E94E204B3
:1003B000B7C0EF3FAFE7FA0749F4E885F985FA934C
:1003C000EA93A7E7B0E00E94E204AAC0AB85A73099
:1003D00010F0E6E0EB871B85E12F1150E03019F0BB
:1003E0000E942106F9CFEC85FD856E857F850E94F0
:1003F000560921F430E00E9421062DC03B850E9461
:10040000300609F008F40BC00E9421060E94300655
:1004100028F00E943B060E944006F8CF0DC00E94C3
:10042000300640F40E943B060E944C060E94530690
:100430003150F5CF0E942106EC85FD856E857F85C4
:100440000E9458060E9453060E94300620F00E9427
:100450003B060E94400610E0EB85E117A8F1AC8155
:10046000BD818E819F810E945F060E945806DF0138
:10047000CB010E943905EC83FD836E837F830E944C
:100480003B060E9456080E9445070E2F0E946606F2
:100490000E946D06FF27662777270E947E07AC81A2
:1004A000BD818E819F810E9408080E943B060E94A8
:1004B00072060E945306E12F1F5FE03069F60E942A
:1004C0006606EEE2EC93C8CF0E9477063197AA85C4
:1004D000A08330302CF43195A885B985EDE203C0B6
:1004E000A885B985EBE2EC930E9477060E94770617
:1004F0003197BF01A32FEAE00E94E008E05DDB0135
:10050000EC930E9477063197BF01A32FEAE00E9487
:100510000A09E05DDB01EC93A885B985E0E0EC9386
:100520000E94630960960895BA93AA93EF97619722
:100530000E945A0910E0FE01E85AFF4F0190F08135
:10054000E02DE887F987FE01EA5AFF4F0190F0811C
:10055000E02DEE83FF83AE81BF81E0E0F0E0ED931C
:10056000FC93DE01A45ABF4F0E9414063197E49118
:100570002E2FE03009F4E9C1E12FE03039F42532C3
:1005800011F411E002C00E947D06DEC1E130C1F429
:10059000253219F40E947D06D6C112E0E0E0ED8B11
:1005A00000E02D3211F401E0CFC12B3219F4EBE25F
:1005B000ED8BCAC1203219F4E0E2ED8BC5C102C057
:1005C000E23039F450E013E0203311F40068BCC18C
:1005D00002C0E33091F4203310F02A3308F007C052
:1005E000AAE05A9F502DE22FE0535E0FADC140E0CC
:1005F0002E3211F414E0A8C10FC0E43099F4203376
:1006000010F02A3308F008C00062AAE04A9F402D8B
:10061000E22FE0534E0F98C12C3619F4026015E01A
:1006200093C103C0E53009F08FC1E22FE33659F4DE
:100630000E9484060E948B060E948406A481AA93CD
:100640000E94920680C1E53411F0E53609F403C03A
:10065000E63609F048C0FE017696EE87FF870E94D5
:1006600098060E942A090E949F060E94A406AD8552
:10067000AA2332F0AD89AB3259F0A03281F017C015
:100680000E94A6060E9412070E949F06EDE2ED8BD3
:1006900007FF05C0ED89EA930E94920608C0EE8527
:1006A000FF853196EE87FF873197AD89A08305FFDF
:1006B00046E0263651F40E94A6060E943F094A935E
:1006C000AB89BC890E94500509C00E94A6060E9401
:1006D0003F094A932A93AC89BD8954DEFE01769680
:1006E0000E94AB061EC0E33739F40E94A4060E94A4
:1006F000B3060E94AB060EC0E037C1F40E94A40608
:100700000E94B306EE87FF87AE85BF850E94FB047B
:100710001E2F08600F77403011F0411708F001C01C
:10072000142F40E0E0E0EC8B30E06DC0E43611F0D7
:10073000E93611F4046002C0E537A1F4EAE0EC8B7D
:1007400001FF08C0E0E0FAEC6AE97BE30E94B8062A
:100750001AE022C0E0E1F7E260E070E00E94B80633
:1007600015E01AC0E83511F4086003C0E83709F055
:10077000EAC0E0E1EC8B01FF08C0E0E0F0E060E0FF
:1007800070E10E94B80618E007C0E0E0F0E160E028
:1007900070E00E94B80614E0403011F00F7701C0FD
:1007A00041E001FF08C00E94A4060E94980614962A
:1007B0000E942A090FC002FF07C00E94A4060E94DF
:1007C000B3060E94CD0806C00E94A4060E94B3068C
:1007D00066277727EA87FB876C877D8702FF12C031
:1007E000AD85AA2342F40E94A6060E94BF080E947B
:1007F0009F06EDE2ED8BED89E03019F01F5F4F5F52
:1008000001C00B7F342F00FD14C0151710F43517ED
:1008100008F00FC007FF08C002FF04C00B7F2D893E
:10082000115001C020E301C020E20E947D0651501A
:10083000ECCF141790F4006102FF06C00E94BD06C1
:1008400009F0515011504150E0E3EA930E949206A2
:10085000503009F051504150ECCF312FEC89E0304D
:10086000B9F43030A1F003FF06C0EE85FF85259175
:10087000EE87FF8705C0AE85BF852D91AE87BF8708
:100880000E947D06503009F051503150EACF51C0DE
:100890000E94CF060E94E5082E2F2A3030F003FF79
:1008A00002C0295C01C0295A01C0205D04FD21C09D
:1008B000213360F4A889B9898A899B89A130E0E055
:1008C000BE07E0E08E07E0E09E0709F40BC0431787
:1008D00040F4531710F000FF01C010C020E207FFE2
:1008E00008C020E3006102FF04C00E94BD0609F0B9
:1008F00051500E947D06503009F0515031500E94F5
:10090000CF060E9416090E949F06EC89A889B98922
:100910008A899B89FF27662777270E94E5080E941E
:10092000B806E889F9896A897B890E94560909F025
:10093000AFCF00FF08C0503031F05150E0E2EA93F1
:100940000E949206F8CF10E00CCEAE81BF810E94CB
:1009500026090E946109EF966F960895FF92F82E7E
:1009600026970E945C090E94D806309719F4EFEF91
:10097000FFEF23C0DE0116960E94BB088D010E9486
:10098000D806EE83FF83E0E0E887E987DE011A9668
:100990000E94BB080E942609FA93EA931A930A93CD
:1009A000E8E8F1E0FA93EA93DE011A96BDDD9F01D3
:1009B000AE81BF81E0E0EC93F9010E9463092A96C1
:1009C000FF900895BA93AA93E991F991A991B991E9
:1009D000CD0105900D920020E1F7FC010895BA9336
:1009E000AA93A991B991EE27FF276D91662311F083
:1009F0003196FBCF0895BA93AA93AA27BB27E99112
:100A0000F9910590002011F01196FBCFFD0108959A
:100A10000E9444097B816A81F981E88177FB770F25
:100A200067FD7160972F9E5781F078F0983190F4B0
:100A3000AA27BB27882708948795B795A7959A95E5
:100A4000D1F7EA23FB23682305C0E8947727EE2734
:100A5000FF2766276F77769508F4606877F9A99184
:100A6000B99189919991EA17FB076807790797FB74
:100A700008950E9444090E9435090E9408050E94B9
:100A80003A0919F40E94300909C0E6F70E943009BA
:100A9000A0E0B0E080E89FE30E94B10724960895AB
:100AA000C9D0E0E0EA83EFE3EB831A930A93EB8586
:100AB000FC85EF3FAFEFFA0731F481D1AEE7B0E04C
:100AC0000E94E2048AC0EF3FAFE7FA0731F477D122
:100AD000AFE7B0E00E94E20480C0AC85AA2352F4E4
:100AE000E985FA856B857C850E9412076DD171D1ED
:100AF000EDE2EC93A885A73010F0E6E0E8871885D2
:100B0000E12F1150E03021F06BD1D9D06ED1F8CF68
:100B100071D10E94B80758D110E0E0E0F0E060E841
:100B20007FE363D167D10E949B0868F059D1B4D0AC
:100B30005CD11F5F173230F042D1A3E8B0E00E94D1
:100B4000E2044BC0EFCF103021F443D1E0E3EC934B
:100B500020C0E12F1150E030E1F042D1B0D0A8D058
:100B6000DF01CB010E94390540D144D10E945608D3
:100B70000E9445070E2F2DD1B0D0F0E031D10E9458
:100B8000CD080E947E070E9408083DD1ABD01CD141
:100B9000E0CFE885E030E9F01CD1EEE2EC93E885A7
:100BA000E150E887EF5FA9F02ED176D00DD1E9852D
:100BB000FA856B857C850E9445070E2F0AD18DD062
:100BC000F0E021D10E94CD080E947E078BD0FCD09E
:100BD000E6CFAE81BF81E0E0EC93198108812D96CC
:100BE0000895E0936002F093610260936202709353
:100BF00063020895FA93EA93E0916002F091610232
:100C000060916202709163020E943F0908950E9400
:100C10001001A3E0B0E00C940807A0E30E94FC00E0
:100C200081E28A95F1F70895ED91FD913196FE9359
:100C3000EE930895BA93AA932497E0E0E883E983BA
:100C40000895AC81BD818E819F81E0E0F0E060E29B
:100C500071E40E940808EC83FD836E837F8308950E
:100C6000EC81FD816E817F81AC85BD858E859F8500
:100C70000E949B080895AC85BD858E859F8508954B
:100C8000EDECFCEC6CEC7DE30E940808EC87FD8742
:100C90006E877F873F5F0895E0E0F0E060E271E4F7
:100CA0000E9408080895EC87FD876E877F87089566
:100CB000A0E0B0E080E09FE30E94B8070895EDEC6B
:100CC000FCEC6CEC7DE30E9408080895A885B985CA
:100CD0001196A887B98711970895E02FE05DEC93EE
:100CE000E02F08950E9449090E94B1070895E88500
:100CF000F9853196E887F98708952A93AF81B885F9
:100D0000E985FA8509950895FE01E65AFF4F01909D
:100D1000F081E02D08953497DE01A65ABF4FED9380
:100D2000FC930895AF81B885E985FA850995089502
:100D3000DE01A65ABF4F0D90BC91A02D0895EA8701
:100D4000FB876C877D870895DFDFE5CFEA85FB852C
:100D50006C857D850895EE87FF87AE85BF850E94EF
:100D6000EF041E2F0895E4DF14960E9426090895CB
:100D7000E88BF98B6A8B7B8B08950B7FED89EA9367
:100D8000DE01A95ABF4F0D90BC91A02DFE01E75A7C
:100D9000FF4F0190F081E02D099550300895E889CA
:100DA000F9896A897B89AA85BB858C859D8508958B
:100DB000DE011C960E94BB080E9426090895EE8160
:100DC000FF81FA93EA930895E987FA876B877C8716
:100DD0000895AE81BF811196AE83BF8311970895A8
:100DE000AA81BB818C819D810895EA83FB836C83FA
:100DF0007D830895EA81FB816C817D81A985BA8517
:100E00008B859C850895A985BA858B859C850895D9
:100E1000109639F0A8958AEF90E00197F1F71197B5
:100E2000C9F7089530976040704009F070580895F0
:100E3000552342F4503811F4E0FF04C03196691F85
:100E4000791F6BF050E8572711F45F93CFC05F3FD5
:100E500031F0660F000C57956795752F08955F93D5
:100E600000200AF0CFC0C8C050E8192E1522880F04
:100E7000991F9527550F879550E8072E0522660F75
:100E8000771F7527550F67950895689401C0E894FA
:100E90005F93F2DF703818F07F3F08F4A7C056E187
:100EA000571BAAF4519558300EF4593030F0EFEF3B
:100EB000FFEF6FEF7FE777F91AC077275523B9F077
:100EC000EE0FFF1F661F771F5A95D1F710C07727C7
:100ED000583028F0EF2FF62F672F5850F9CF5523B1
:100EE00031F076956795F795E7955A95D1F70020FB
:100EF0000AF445D15F910895689401C0E894309751
:100F000060407040B1F0002426F0772312F4009482
:100F100036D1172E7EE1112032F07A95EE0FFF1FA9
:100F2000661F111CF9CFEF2FF62F612D5F938ADF1B
:100F30005F9108954F93AF01FD01DA01AB01BC0150
:100F4000CA01402D012C142E4F910895EA0FFB1F6A
:100F5000681F0895E095F0956095EF5FFF4F6F4F24
:100F600008955F9381DF903871F150E8152604C031
:100F70005F937ADF903839F1703821F1572F591B80
:100F80002BF112F4D7DFFACF583118F0AA27BB277C
:100F90008827583028F0AB2FB82F88275850F9CF22
:100FA000552329F08695B795A7955A95D9F7502DD1
:100FB000512572F0CBDF38F46795F795E795739577
:100FC00013F420C0B7DF3EDF5F910895D8F7FBCF61
:100FD000EA1BFB0B680B51F010F40094BBDF662397
:100FE00092F3EE0FFF1F661F7A95CBF7EE27FF27D0
:100FF000662777275F910895EFEFFFEF6FE77FEFA9
:101000005F910895EFEFFFEF6FE77FE75F9108953E
:101010005F932ADF703851F3903841F3012408942C
:10102000791F23F41CF300203AF3ECCF0F921F93A7
:101030002F933F934F93112722279927689FA00151
:101040008F9F302D410D591F6B9F300D411D591F32
:101050008E9F27D0BF9F25D06A9F23D0BE9F1DD0D3
:10106000AF9F1BD0AE9F110D291F391F491F591F5C
:10107000E32FF42F652F522F4F913F912F911F9106
:101080000F9066232AF0550FEE1FFF1F661F02C048
:1010900073954BF2CDDE5F910895100D211D391F20
:1010A00002C0200D311D491F591F08955F93DCDEDA
:1010B000703821F411200AF49FCFA4CF903809F49E
:1010C00095CF01240894970B1BF4D4F30020F3CFA1
:1010D000792F1F932F933F934F931124112722278A
:1010E00033274427552790E2AE17BF0786074107ED
:1010F00030F0AE1BBF0B860B410B089401C08894E7
:10110000551F221F331F111CAA1FBB1F881F441FFE
:101110009A9551F7F901612D4F913F912F911F91B0
:10112000662332F0550FEE1FFF1F661F7A9543F2BC
:101130007FDE5F91089599239AF0772342F0971705
:1011400048F029F4AE17BF07860720F031F09894D5
:10115000889408959894089408951894889408950C
:101160007723C2F7971798F3A9F7EA17FB076807E1
:1011700088F399F3ECCF0024AF0DB01D0895F095DE
:1011800060957095E195FF4F6F4F7F4F0895FE2F4B
:10119000FF0FFF0B6F2F7F2F08956F2F660F660BCA
:1011A000762F0895002498E0AA0F001C0E1A10F460
:1011B0000E0E01C0A1609A95B9F7EA2FA02D0895EF
:1011C00039D0F0DF0EF4E19508953F934F935F938C
:1011D000002411244427552730E2AA0FBB1F881F83
:1011E000991F001C111C441F551F0E1A1F0A460B85
:1011F000570B28F40E0E1F1E461F571F01C0A1607B
:101200003A9559F7FD01BC01D001CA015F914F9198
:101210003F910895E894A7FF02C0A1956894E7FD67
:10122000E195C0DFEA2F0EF4E1950895CEDFFD01D0
:10123000BC010895E894E7FF02C0E1956894A7FF18
:1012400004C0A19500F8039400FA0895ED91FC9173
:1012500011970895ED91FD916D917C9113970895EB
:10126000E881F9816A817B810895A881B9818A81A9
:101270009B810895E883F9836A837B8308957A9339
:101280006A93FA93EA9308959A938A93BA93AA93E6
:101290000895182E862F612D192E972F712D1B2E34
:1012A000BF2FF12D1A2EAE2FE12D089530976040FB
:1012B000704008955A934A933A932A931A930A9343
:1012C00008955D814C813B812A81198108810895AF
:00000001FF
