:0E0000000C944A000C9400000C9400000C9428
:10000E0000000C9400000C9477000C9400000C94EB
:10001E0000000C9400000C9400000C9400000C9452
:10002E0000000C9400000C9400000C9400000C9442
:10003E0000000C9400000C9400000C9400000C9432
:10004E0000000C9400001027E80364000A00010071
:10005E000010000110000100000000000000000070
:10006E00253032643A253032643A2530326400004D
:10007E0080C0010002006600060004006800020055
:10008E0074027E000000F894EE27ECBBF1E0FBBF9B
:10009E00EBBFE5BF8DE0A2E0BB27ED938A95E9F7B4
:1000AE0080E098E0A0E6ED930197E9F7E0E8F0E054
:1000BE0085919591009761F0A591B5910590159058
:1000CE00BF01F00105900D920197E1F7FB01F0CF12
:1000DE00EFE5EDBFE8E0EEBFC0E6D2E00C9499008C
:1000EE00EA93FA93EFB7EA930E9460032CF0882408
:1000FE009924F20131962F01ECE3F0E04E165F06E3
:10010E002CF044245524F30131963F01E8E1F0E050
:10011E006E167F0614F066247724E991EFBFF991ED
:10012E00E9911895E0E0E7BBE7E0E8BBE8E0E2BD67
:10013E00E5E0E5BDE0E0E4BDE3BDE0E4E9BFA0E15C
:10014E00CAD07894A0E0B099A1E00E946803A0E024
:10015E0022FCA1E00E946D0339F0689422F80E94FF
:10016E00600314F088249924B09B02C0E89422F80E
:10017E00A0E0B199A1E00E946803A0E020FCA1E0FC
:10018E000E946D0361F0689420F8F20131962F0100
:10019E00ECE3F0E04E165F0614F044245524B19BB8
:1001AE0002C0E89420F8A0E0B299A1E00E94680392
:1001BE00A0E021FCA1E00E946D0361F0689421F89B
:1001CE00F30131963F01E5E1F0E06E167F0614F083
:1001DE0066247724B29B02C0E89421F8E0E0EA930B
:1001EE00A0E03AD0E0E6F2E0FA93EA93EEE6F0E031
:1001FE00FA93EA93F3010E947203F2010E947203D2
:10020E00F4010E9472038CE00E9413036096A0E634
:10021E00B2E050D097CFFFCFAA93EBB3EF70AE2FD3
:10022E00E881E07FEA2BEBBB82E08A95F1F7DA9A60
:10023E0082E08A95F1F7DA9882E08A95F1F776C036
:10024E00AA93A881E9DFE881E295E883A881E4DF3B
:10025E0081E18A95F1F76AC0AA93E881F0E0EC5843
:10026E00FD4FE081A981AE0FEBDFB980A880229609
:10027E000895A2E00E947703ACE0E2DFA1E00E94C5
:10028E007703E0E0AE2EBE2E0895AA93A881AA3081
:10029E0011F0BD1448F0E0E0EA93A394AA2DDCDF40
:1002AE00A881AA3009F442C0B394D89AA881C8DFB5
:1002BE00D8983CC0BA93AA931A93A981BA81ED91AA
:1002CE00A983BA831E2FE03019F0A12FDEDFF5CF00
:1002DE00188123960895AA93EAB3E06FEABBD29AE7
:1002EE00D09AD19ADA98D898D998D880E881E058DF
:1002FE00E0937602E881E054E0937702A4E1B0E067
:10030E000E94B0030E947D030E947D030E947D0324
:10031E00A0E282DF81E28A95F1F7A8E291DFA4E004
:10032E008FDFA5E88DDFA6E08BDFA3DF2196089592
:10033E00BA93AA931A930A93AA81BB8112960E942A
:10034E00CC03309759F1AA81BB8114960E94CC033D
:10035E008F01309761F00230E0E01E0798F0F8014F
:10036E0031978F01AA81BB811496ED93FC93AA81DC
:10037E00BB811296ED91FD913196FE93EE933197DE
:10038E00AC81A083AA81BB810E94CC03FF232AF0FB
:10039E00ED91FD913196FE93EE9306C0AA81BB813D
:1003AE00EFEFFFEFED93FC931981088125960895E9
:1003BE00BA93AA9326970E94D90310E0AC85BD8507
:1003CE00E0E0F0E0ED93FC93EA89FB893196EA8B4D
:1003DE00FB8B3197E4912E2FE03009F415C1E12FFC
:1003EE00E03039F4253211F411E002C00E9484038A
:1003FE000AC1E130A9F4253219F40E94840302C126
:10040E0012E040E000E02D3211F401E0FCC02B328E
:10041E0011F44BE2F8C0203211F440E2F4C002C0F5
:10042E00E23039F450E013E0203311F40068EBC0F1
:10043E0003C0E33009F0E7C0203310F02A3308F090
:10044E0007C0AAE05A9F502DE22FE0535E0FDBC08B
:10045E00E22FE33649F40E948B03E889F989A481DF
:10046E00AA930E949103CEC0E33741F40E948B03FE
:10047E000E9497030E9447031E2F0AC0E03761F4C3
:10048E000E948B030E9497030E9453031E2F086045
:10049E0002600F7730E034C0E43611F0E93611F423
:1004AE00046002C0E53731F4E4E5F0E0EE83FF834B
:1004BE0015E00CC0E83511F4086003C0E83709F008
:1004CE00A1C0EEE5F0E0EE83FF8314E002FF14C05E
:1004DE000E948B030E94A103AB85AA233AF4EA85FE
:1004EE00FB850E94BE03EA87FB874DE2403011F088
:1004FE001F5F01C00B7F04C00E948B030E94A103EB
:10050E0000FD11C0151778F407FF08C002FF04C0E4
:10051E000B7F242F115001C020E301C020E20E9466
:10052E0084035150EFCF312F01FF17C03030A1F0AF
:10053E0003FF06C0EE81FF812591EE83FF8305C088
:10054E00AE81BF812D91AE83BF830E948403503054
:10055E0009F051503150EACF4BC020E3EE81FF81BC
:10056E000E94D003E887F987EE81FF813296EE83F1
:10057E00FF83E885F985AA85BB85AE17BF0750F0C6
:10058E002F5FA885B985EA85FB85EA1BFB0BEA87F9
:10059E00FB87EFCF2A3328F003FF02C0295F01C08B
:1005AE00295D04FD1AC0213320F4A885B985119761
:1005BE0009F409C0531710F000FF01C013C020E268
:1005CE0007FF0BC020E3006102FF07C00B7F4A93B9
:1005DE000E949103503009F051500E948403503014
:1005EE0009F051503150A885B985129708F0B5CF52
:1005FE0000FF08C0503031F05150E0E2EA930E9403
:10060E009103F8CF10E0E0CEAC85BD850E94CC03FF
:10061E000E94E00364960895FF92F82E26970E949A
:10062E00DB030E94A903309719F4EFEFFFEF23C00D
:10063E00DE0116960E94BA038D010E94A903EE8375
:10064E00FF83E0E0E887E987DE011A960E94BA038D
:10065E000E94CC03FA93EA931A930A93EFE9F1E01E
:10066E00FA93EA93DE011A96A3DE9F01AE81BF8153
:10067E00E0E0EC93F9010E94E2032A96FF900895C0
:10068E00BA93AA93A991B991EE27FF276D9166238C
:10069E0011F03196FBCF0895BA93AA93AA27BB27E0
:1006AE00E991F9910590002011F01196FBCFFD0113
:1006BE000895F40131964F01ECE3F0E08E169F069B
:1006CE000895E0E00E94C7030E2E0895E0E00E9418
:1006DE00C703E02108950E94C2030E94D403089527
:1006EE000E942701A3E0B0E00C94B003A0E30E94A7
:1006FE00130181E28A95F1F708952A93AD85BE859F
:10070E00EF85F88909950895E889F9893497E88B7A
:10071E00F98B0895AD85BE85EF85F8890995089505
:10072E00A889B98914960E94CC03EE83FF83AE810B
:10073E00BF810895A889B98914960E94CC03EA87CF
:10074E00FB870895DE011C960E94BA030E94CC031B
:10075E000895109639F0A8958AEF90E00197F1F779
:10076E001197C9F708950024AF0DB01D0895F195A6
:10077E00E195F04008956F2F660F660B762F089562
:10078E00EA17E1E009F0EE270895ED91FC9111973B
:10079E0008950590F491E02D08957A936A93FA9353
:1007AE00EA9308955A934A933A932A931A930A9383
:1007BE0008955D814C813B812A81198108810895BC
:00000001FF
